:020000040000FA
:0600000002011A0226D1E4
:03002B00022D6E35
:03003B00022DD8BB
:03004300022D4348
:030053000227473A
:03006B00022D96CD
:03007B00022E4C06
:10008300022527E5C754F84401F5C779012200008A
:100093000080FB120086B90003020104E479217891
:1000A30008B800028004F709D8FCE479297802B87B
:1000B30000028004F709D8FCE490028678387919A5
:1000C3008002F0A3D8FCD9FA781A90014A7A01BACF
:1000D30000028007E493A3F608DAF97ABD7B1A904D
:1000E300014B783F79028015E493A3AD82AE838AF6
:1000F300828B83F0A3AA82AB838D828E83D8E9D9C6
:10010300E77582A67583FF740312012C75829175BE
:100113008300740012012C75D00075812A7518862E
:10012300751902759F00020096C09FF59FE473D076
:100133009F22D083D082C09FE493C0E0740193C018
:10014300E0740293F59F22018081828384858687F0
:10015300C505D10507060106FF0000B4000028000D
:100163002800283075A000A000A000A0000008000F
:1001730008E001F000100010001000100010001043
:100183000050005000500010001000D00700000085
:100193000000000F0001000500307507001000018A
:1001A3000081FF00000000FFFFFF330751073907FD
:1001B3007507FF02020208025000A0000000E803D6
:1001C30002E88F010000D78F02F08F010000281B87
:1001D30002DC8F010000C90602F08F010000291B19
:1001E30002DA8F010000DF0602F08F0100002A1BF4
:1001F30002F28E010000E10602F08F0100002B1BCA
:1002030002DE8F080000E20602F08F0100002C1BC3
:1002130002E28F0100002D1BFFFF0100FF2002E817
:100223008F010000D48F02F08F010000921B02F2B5
:100233008F000000000002E08F0300001207170088
:10024300970F970F970F970F970F970F970F970F7B
:10025300970F970F970F970F970FFB111912F51120
:100263003F135113391301E803057710020AFFFF07
:1002730000FEFF010203040506090C0D0E0F101109
:100283001213151617181201352D8804120135C5DE
:100293008904120135F38A041201352D8B041201EE
:1002A30035148C041201352D8C041201353D8C0458
:1002B3001201355E8C041201357F8C0412013594D2
:1002C3008C04120135D68C04120135FB8C04120107
:1002D300353C8D041201357D8D041201359D8D044D
:1002E300120135BE8D04120135CC8D041201350384
:1002F3008E041201351A8E04120135348E04120154
:10030300359D8E04120135B68E041201350080022C
:10031300120135E88202120135F982021201351306
:100323008302120135218302120135A183021201D6
:1003330035BE8302120135F5840212013537870277
:100343001201358F8702120135AC87021201355F26
:1003530088021201357C8802120135A78902120135
:1003630035B58902120135D989021201357F8A0216
:10037300120135258B02120135E38B02120135047C
:100383008C02120135C38F021201352F9002120124
:1003930035939002120135A490021201354A92025C
:1003A300120135DD9202120135699302120135F013
:1003B3009302120135FB93021201351594021201C7
:1003C300352C94021201355F9402120135789402A0
:1003D300120135EE94021201353F9502120135B137
:1003E30095021201353696021201357C96021201EE
:1003F30035C2960212013528970212013539970248
:10040300120135509702120135A498021201358A60
:100413009902120135B49902120135DB99021201D6
:10042300353E9A02120135459A021201355E9A024F
:10043300120135F47E00120135BA8705120135CD5C
:100443008705120135EE870512013559880512011A
:10045300359A8805120135BB8805120135FC8805DC
:10046300120135948905120135DC8905120135AA7B
:10047300F704120135BDF704120135EEF70412013A
:100483003528F80412013581F804120135C8F8043F
:1004930012013510F9041201353FF9041201356ECA
:1004A300F904120135A5F904120135ECF90412011E
:1004B3003505FA041201355AFA0412013588FA0493
:1004C300120135C2FA04120135DAAE03120135DD29
:1004D300AF031201350AB0031201355BB0031201F9
:1004E300357EB00312013590B00312013593B0038A
:1004F300120135D1B00312013545B103120135B1F3
:10050300B10312013579B20312013595B203120119
:1005130035CCB20312013506B3031201359DB30383
:10052300120135EFB30312013520B4031201355123
:10053300B4031201355EB403120135C8B4031201CA
:1005430035CBB403120135CEB40312013525B503FF
:1005530012013528B50312013561B5031201356463
:10056300B50312013598B5031201359BB50312018A
:1005730035EFB50312013538B60312013548B6031A
:100583001201357BB60312013588B6031201358B90
:10059300B603120135F3B603120135F5B7031201A1
:1005A3003599B80312013502B90312013540B90375
:1005B3001201353CE10312013534E20312013568BF
:1005C300E203120135FEE20312013549E30312018E
:1005D30035ADE30312013537E403120135F0E403CB
:1005E30012013512E8031201358FE903120135B206
:1005F300E903120135A6E7041201354BE9041201A0
:10060300356BE9041201358CEA04120135DFEA0483
:10061300120135ECEB0412013514EC0412013541DF
:10062300EC0412013579EC04120135D7EC04120104
:100633003523ED041201358AED04120135CAED04A8
:1006430012013507EE0412013535EE04120135DFD0
:10065300EE04120135E9EE04120135F6EE0412013F
:100663003529EF0412013535EF041201354DEF043E
:1006730012013557EF04120135BD9305120135CB35
:100683009305120135E39305120135FB930512011E
:1006930035129405120135626E001201350C6F009C
:1006A300120135886F00120135A67000120135E280
:1006B30070001201357D7100120135617200120163
:1006C300352473001201359C73001201352A75001D
:1006D3001201359B7500120135557600120135471D
:1006E30077001201358777001201353B780012013C
:1006F300356D7800120135637A00120135AA7A004C
:10070300120135C87A001201352E7B00120135FD26
:100713007B00120135C17C00120135E07E0012011D
:1007230035EA7E0012013586AB04120135D7AB04DE
:1007330012013587AC04120135F8AC04120135DD22
:10074300AD0412013511AE041201350AAF041201D2
:100753003547AF0412013523B00412013562B004EA
:100763001201357EB004120135078A051201358B5B
:100773008A05120135B68A05120135D08B0512019F
:1007830035E5EF04120135FBEF0412013519F004CE
:100793001201352AF10412013534F1041201355FD7
:1007A300F20412013556F304120135C3F3041201A6
:1007B30035CDF30412013591BB04120135C1BC04DC
:1007C300120135F8BC0412013542BD04120135058E
:1007D300BF04120135659A02120135169B021201FC
:1007E300352B9B02120135F49B021201350E9C023C
:1007F300120135619C02120135379D021201352920
:100803009E02120135E09E02120135EEA102120191
:1008130035DDA3021201358FA40212013558A5025A
:100823001201359DA80212013547A9021201357044
:10083300AA021201352CAC02120135CCAC02120112
:10084300351FAD021201355EAD0212013531AE0224
:1008530012013565AE02120135F2AE0212013541C5
:10086300C202120135CDC20212013531C402120196
:10087300353DC40212013578C402120135E7C402C2
:10088300120135F0C502120135F9C602120135C055
:10089300C7021201351DC9021201353BC9021201FB
:1008A3003558C90212013523CA021201354BCA0257
:1008B30012013515CD021201351ACD02120135335D
:1008C300CF0212013581CF02120135F1CF0212019D
:1008D300352FD0021201350BD102120135CBD102D3
:1008E30012013517D2021201351AD2021201355EF6
:1008F300D202120135A6D202120135E5D20212014B
:100903003507D3021201353BD3021201359ED302C0
:1009130012013526D0041201352FD0041201353DC2
:10092300D00412013590D004120135AFD004120166
:1009330035F4D00412013538D204120135D3D20470
:1009430012013517D30412013541D304120135B016
:10095300D304120135F6D3041201356DD404120108
:10096300351ED504120135982E00120135A82E002C
:10097300120135492F00120135A52F0012013562EE
:1009830030001201357E3100120135B03100120101
:1009930035DF31001201358C330012013503360087
:1009A3001201357338001201356539001201355EC5
:1009B3003A00120135653C00120135593F0012011E
:1009C300358840001201358C42001201359C4300EA
:1009D3001201352B45001201351C46001201356A00
:1009E3004600120135D94600120135FD46001201B9
:1009F300354E4700120135EF4B00120135F04C0024
:100A0300120135514D001201357C4D001201354262
:100A13004E001201353FB60412013549B6041201E6
:100A2300358EB604120135A2B60412013532B7046D
:100A33001201356BB704120135A6B704120135CF85
:100A4300B7041201351DB80412013532B80412017E
:100A53003575B8041201358AB804120135F5B804A6
:100A630012013509B9041201351DB90412013532D9
:100A7300B9041201356CB90412013590B90412019D
:100A830035BCB90412013546BA041201357BBA04E8
:100A9300120135A6BA04120135D1BA041201351474
:100AA300BB041201353EBB0412013569BB041201BC
:100AB30035A99205120135008003120135E3800345
:100AC3001201355E8103120135998103120135EA62
:100AD30082031201357383031201358B85031201DF
:100AE300351D8803120135CF8803120135DB8903D5
:100AF3001201354E8B03120135A78B03120135D436
:100B0300C00412013517C1041201359BC10412013F
:100B1300356EC20412013545C50412013500800546
:100B2300120135AD8005120135BA8105120135F97F
:100B33008105120135538205120135FF8B05120120
:100B430035628C05120135FF8C05120135348D0594
:100B5300120135648D05120135858D05120135C0ED
:100B63008D05120135E08D0512013530D5041201D2
:100B730035BCD5041201357BD60412013593D70455
:100B8300120135ADD9041201352998031201354EEE
:100B930098031201351B9903120135EF99031201D2
:100BA300355C9A03120135B29A031201354E9B0349
:100BB300120135829C031201355D9D03120135BC80
:100BC3009D03120135489E03120135B69E0312019F
:100BD30035429F03120135459F031201358F9F0351
:100BE30012013501A00312013593A003120135341C
:100BF300A10312013554A1031201359CA103120173
:100C030035E5A10312013501A20312013527A20321
:100C1300120135A1A203120135AFA2031201353E21
:100C2300A303120135A7A3031201357BDE041201CE
:100C33003500DF0412013542DF0412013526E004DA
:100C430012013593E004120135D7E0041201351B7C
:100C5300E10412013548E10412013570E104120187
:100C630035A8E104120135E6E1041201350DE20471
:100C730012013587E204120135D1E204120135F580
:100C83008F01120135EE9101120135DA940112013F
:100C9300352E95011201355995011201353396010F
:100CA300120135729601120135B99601120135CC44
:100CB30096011201350D97011201353A9701120180
:100CC30035889701120135C79701120135F2970153
:100CD300120135459801120135D49801120135B23C
:100CE3009B01120135D29D01120135479F0112016B
:100CF300353BA0011201351FA20112013581A2016A
:100D0300120135D2A201120135EDA7011201353CC2
:100D1300A80112013582A8011201356AAA01120144
:100D23003518AC011201356AAC01120135A8AC01CA
:100D3300120135D9AC01120135FBAC011201352B7F
:100D4300AE011201353DAE011201352AFB04120139
:100D5300359CFB04120135F2FB0412013536FC0409
:100D630012013556FC04120135A3FC04120135EBC4
:100D7300FC041201353EFD041201358FFD041201FE
:100D8300358AD70312013509D80312013502DE0370
:100D930012013508DF031201357BE003120135121E
:100DA300E10312013560AE01120135A9AE01120152
:100DB30035D6AE0112013508AF0112013514AF016A
:100DC30012013520AF0112013537AF01120135127F
:100DD300B00112013570B001120135A5B001120145
:100DE30035D6B10112013523B20112013569B201C1
:100DF300120135D5B20112013579B3011201352F34
:100E0300B4011201358EB401120135FFB401120190
:100E1300355DB5011201358FB601120135F7B70102
:100E2300120135C1B801120135CEB80112013510D6
:100E3300B90112013520B90112013544B90112017A
:100E43003547B90112013533BA01120135CFBA0161
:100E530012013568BB01120135FFBB011201352CAC
:100E6300BC011201358ABC01120135D1BC0112014A
:100E73003521BD0112013571BD01120135E3BD01FB
:100E83001201358CBE0112013537BF01120135D66F
:100E9300BF0112013554C0011201359BC00112017B
:100EA30035FFC0011201352EC101120135C5C10143
:100EB300120135D2C30112013516C4011201356185
:100EC300C401120135E7C40112013571C5011201D4
:100ED300358AC60112013510C70112013535C70124
:100EE3001201358CC701120135A1C701120135E981
:100EF300C7011201355CC801120135A1C8011201F5
:100F030035AAC9011201355BCA01120135B9CA01FB
:100F130012013515CB011201352ECB01120135D546
:100F2300EA0312013529EB0312013535EB031201F4
:100F330035FFEB031201352CEC031201355AEC0398
:100F4300120135C6EC03120135FCEC0312013535F1
:100F5300ED031201354DED03120135A2ED0312012C
:100F630035BBED0312013500EE0312013513EE0319
:100F73001201352DEE0312013543EE0312013561E3
:100F8300EF031201358CF00312013576F1031201E0
:100F93003565F2031201358D2E00120135F7C504B4
:100FA3001201357AC904120135C7CA0412013595F5
:100FB300F00212013565F3021201356BF3021201DF
:100FC30035FBF5021201355EF802120135E4D9044E
:100FD3001201357BDA0412013539DB041201356362
:100FE300DB041201353DDD0412013542DE0412013A
:100FF3003521E80112013553E80112013570F4017E
:10100300120135C1F501120135CAF6011201354944
:10101300F80112013522F90112013571F9011201AA
:10102300358BF901120135CDF901120135D8F901DA
:1010330012013521FA011201352AFA01120135D6BE
:10104300FA01120135AFFB01120135F6FB01120162
:10105300355EFC01120135A0FC01120135CEFC0105
:1010630012013509FD01120135E8AF021201356B9A
:10107300B30212013571B302120135C6B90212016E
:101083003510BE02120135F6C102120135D7F30441
:101093001201354DF40412013563F404120135F3E2
:1010A300F40412013530F5041201356AF504120116
:1010B30035A4F50412013517F60412013558F60468
:1010C30012013561F6041201356DF6041201358CF7
:1010D300F604120135B6F604120135CBF6041201FB
:1010E30035F3F60412013555F7041201357CF70484
:1010F300120135709E04120135839E041201359D41
:101103009E04120135CA9E04120135109F04120178
:1011130035439F04120135819F04120135E69F0474
:10112300120135FB9F0412013506A0041201351389
:10113300A0041201352AA00412013538A0041201BB
:101143003547A0041201355CA00412013571A004D7
:101153001201357CA00412013588A00412013595D3
:10116300A004120135A8A004120135B3A004120192
:1011730035D8A0041201357CA1041201358CA104D9
:10118300120135A1A104120135B6A104120135D013
:10119300A104120135EDA1041201350AA2041201C2
:1011A3003515A204120135C1A204120135A2A3040C
:1011B300120135C7A304120135D2A304120135E786
:1011C300A304120135FBA3041201355CA40412012C
:1011D3003562A40412013568A4041201356EA40417
:1011E30012013586A404120135B9A404120135662F
:1011F300B90312013588B90312013550BA0312013C
:10120300350ABD0312013520BE0312013541BF0368
:101213001201351BC003120135CAC0031201351276
:10122300E302120135A9E30212013541E40212017E
:101233003531E50212013568E5021201357BE5021D
:10124300120135E9E50212013584E702120135ABDB
:10125300E7021201354DE80212013582E80212015C
:101263003593E8021201350CE9021201352DE9022A
:1012730012013545E9021201359DEA02120135A634
:10128300EC02120135F6EE02120135F9EF021201FA
:101293003548F00212013576D40212013573D502B6
:1012A3001201355ED60212013568D602120135727B
:1012B300D60212013594D602120135A0D6021201CC
:1012C30035F2D70212013521D80212013551D90264
:1012D30012013593D902120135BFDA021201359595
:1012E300DB02120135E7DB0212013546DC02120193
:1012F300357DDC02120135B8DC0212013553E00200
:101303001201356CE002120135EEE002120135FCE8
:10131300E00212013551E1021201355FE1021201CF
:1013230035CCE1021201353EE20212013584E202BC
:10133300120135CAA303120135ECA303120135D6FA
:10134300A5031201357BA903120135BEAA031201BD
:101353003598AB031201353DFE0112013562FE01E2
:10136300120135D3FE011201350080041201350943
:1013730080041201351280041201354381041201E5
:1013830035628304120135988304120135D2830434
:1013930012013508840412013542840412013576A2
:1013A3008404120135A28404120135EB8404120172
:1013B300352585041201356D8504120135C3850475
:1013C300120135F885041201355386041201358D57
:1013D3008604120135DE86041201351487041201D6
:1013E300354E87041201357C87041201359F87042B
:1013F300120135379605120135639605120135BE84
:101403009605120135C89605120135D896051201C5
:10141300351EF40312013566F4031201352AF50370
:10142300120135F3F50312013575F603120135DEAA
:10143300F60312013530F70312013543F7031201A6
:101443003585F70312013520F8031201359FF803A0
:1014530012013523FA031201353CFA0312013574E4
:10146300FB03120135E0FB031201354EFC031201AD
:101473003512CB041201358FCB04120135D5CB04C1
:101483001201356ECC04120135BACC04120135CBEE
:10149300CC04120135EACC0412013503CD04120148
:1014A3003568CD0412013579CD04120135A6CE0479
:1014B300120135C6CE04120135DFCE041201350107
:1014C300CF0412013518CF0412013533CF041201B2
:1014D300356BCF04120135C0CF04120135D1CF04CF
:1014E300120135DFB004120135F4B0041201351DC9
:1014F300B20412013594B40412013512B604120178
:10150300357E9505120135AE4E00120135E05100CE
:10151300120135DC53001201355754001201351501
:101523005500120135C155001201356456001201F0
:1015330035FC56001201352B5700120135825C0031
:10154300120135145D00120135505E00120135BAE7
:101553005E001201356E5F00120135246200120134
:10156300355E6200120135C8620012013525630041
:10157300120135826300120135DF6300120135CA9F
:1015830064001201351065001201355B650012011C
:10159300357E6500120135C56600120135D9660036
:1015A300120135486800120135876800120135C7FA
:1015B30068001201351A69001201353B69001201F6
:1015C300357969001201359F6B00120135E06B001C
:1015D3001201357B6C00120135ED6C001201352EC2
:1015E3006E001201350EFD02120135B4FD02120127
:1015F30035A1FE02120135E0FE021201354AFF0257
:10160300120135B89805120135949105120135A4DC
:101613009105120135B59105120135989205120114
:1016230035A1FC0312013549FD031201358BFF037C
:10163300120135F87F001201353685051201354B4D
:101643008705120135B78705120135508C03120146
:1016530035C48C03120135CE8D03120135928E03EE
:10166300120135F48E031201357092031201359C79
:101673009203120135FB9203120135CC930312013D
:1016830035AC9403120135E094031201352195031F
:10169300120135F296031201350697031201351430
:1016A300970312013527970312013551970312014E
:1016B300358F9703120135CD9703120135DB97035D
:1016C300120135019803120135E296051201355BCB
:1016D30097051201357A970512013579980512019C
:1016E300358E9805120135D68F04120135EB8F0420
:1016F300120135479004120135B29004120135FAF4
:1017030090041201356C9104120135959104120174
:1017130035A3910412013505920412013543920455
:101723001201355E9204120135F99204120135A2B9
:1017330093041201352594041201355E94041201B9
:1017430035E994041201354095041201359E950440
:10175300120135B09504120135D69504120135DF17
:1017630095041201353697041201358A9705120143
:1017730035D0FD0412013537FE04120135F4FE04A1
:1017830012013572FF0412013511E30412013544CD
:10179300E30412013576E404120135BAE4041201BC
:1017A300357FE5041201355BE604120135EE8D0544
:1017B300120135CC8E051201359E8205120135E3E7
:1017C3008205120135298305120135F284051201C0
:1017D30035A29405120135BD9405120135CD94054A
:1017E300120135329505120135BEC3031201359A34
:1017F300C403120135E1C4031201351EC5031201EE
:10180300358CC503120135E6C50312013556C603EF
:1018130012013526C70312013515C8031201358C91
:10182300C80312013528CA03120135B5CA031201D0
:101833003528CB03120135A4CB03120135BBCB03EF
:10184300120135E0CC031201353ACD031201353BC9
:10185300A5041201355BA50412013561A60412012A
:1018630035ADA604120135CDA60412013520A70417
:101873001201358DA704120135D3A70412013537A0
:10188300A804120135E3AA0412013564AB04120162
:1018930035A6CD03120135D8CD03120135C5D003CA
:1018A300120135BDD103120135D7D103120135F42D
:1018B300D1031201353DD20312013592D203120135
:1018C30035FFD203120135B6D5031201356ED703A6
:1018D3001201355ECB01120135BFCB01120135D8A0
:1018E300CB011201359EE001120135D6E001120150
:1018F3003520E10112013531E10112013503E30124
:1019030012013514E301120135BBE30112013566FF
:10191300E401120135A4E501120135BDE50112010F
:1019230035D6E501120135E9E501120135E4E60199
:10193300120135DBE7011201356A9704120135A75D
:101943009704120135B09D04120135319E04120132
:1019530035288F05120135538F05120135928F05F6
:10196300120135A38F05120135BC8F051201351302
:101973009005120135609005120135A590051201FD
:10198300352D9805120135B8FF02120135CAFF043F
:10199300120135D79805E066701008A3E066700A57
:1019A30008A3E066700408A3E06622C3E79608096B
:1019B300E7960809E7960809E79622C3E09608A385
:1019C300E09608A3E09608A3E09622C008C3E09639
:1019D300F50808A3E096420808A3E096420808A386
:1019E300E09645087001D3D00822080808EAC0E051
:1019F300EBC0E086F0E7A4FA180986F0E7A42AFA18
:101A0300180986F0E7A42AFA180986F0E7A42AFA47
:101A13001986F0E7A4FBE5F02AFA190886F0E7A493
:101A23002BFBE5F03AFA190886F0E7A42BFBE5F067
:101A33003AFA18180986F0E7A4C5F02BFBE43AFA42
:101A43001908E7C5F0C6A426F6E5F03BFBE43AFA2D
:101A53001886F0E7A4F6E5F00826F6E43B08F6E47A
:101A63003A08F6D0E0FBD0E0FA22E4CFC0E0E4CEBF
:101A7300C0E0E4CDC0E0E4CCC0E075F020E626F69B
:101A830008E633F608E633F608E633F6181818ECDA
:101A930033FCED33FDEE33FEEF33FFC3EC9709ED7B
:101AA3009709EE9709EF97191919400FFFEC97FC67
:101AB30009ED97FD09EE97FE191906D5F0BFECF76E
:101AC30009EDF709EEF709EFF7191919D0E0FCD082
:101AD300E0FDD0E0FED0E0FF226016080808C6C390
:101AE30013C618C613C618C613C618C613C6D5E040
:101AF300EA227009080808226016181818C6C333AA
:101B0300C608C633C608C633C608C633C6D5E0EA18
:101B130022E627F60809E637F60809E637F6080944
:101B2300E637F622E026F608A3E036F608A3E03609
:101B3300F608A3E036F622E026F008A3E036F00824
:101B4300A3E036F008A3E036F022C3E697F60809CF
:101B5300E697F60809E697F60809E697F622C3E042
:101B630096F008A3E096F008A3E096F008A3E096A9
:101B7300F022E657F60809E657F60809E657F6088D
:101B830009E657F622E056F608A3E056F608A3E066
:101B930056F608A3E056F622E056F008A3E056F006
:101BA30008A3E056F008A3E056F022E647F608093A
:101BB300E647F60809E647F60809E647F622E0662F
:101BC300F608A3E066F608A3E066F608A3E066F667
:101BD30022E0F608A3E0F608A3E0F608A3E0F62265
:101BE300E6F008A3E6F008A3E6F008A3E6F022E097
:101BF300FAA3E0FBA3E0FCA3E0FD22EAF0A3EBF0F1
:101C0300A3ECF0A3EDF022E0F8A3E0F9A3E0FAA33C
:101C1300E0FB22E8F0A3E9F0A3EAF0A3EBF022CA89
:101C2300C0E0E6F0A308DAFAD0E0FA22CAC0E0E0A6
:101C3300A3C582CCC582C583CDC583F0A3C582CCA1
:101C4300C582C583CDC583DAE6D0E0CA22C3E49852
:101C5300F8E499F9121C918026C3E49AFAE49BFBF9
:101C6300E920E7E9121C91E498F8E499F922C3E426
:101C730098F8E499F9121C91E498F8E499F9C3E40B
:101C83009AFAE49BFB22EB20E7CFE920E7E0B900D7
:101C930010BB0008E88AF084F8AAF022E4FBC8FA33
:101CA30022EB70227B10C833C8C933C9335007C332
:101CB3009AC3DBF280069A50012ADBEAC833F4C8E0
:101CC300C933F4C9FA2275F008E4C833C8C933C963
:101CD30033C99AC99B5004C92AC93BD5F0ECFBC848
:101CE30033F4C8E4C9FA22600D08C6A2E713C61884
:101CF300C613C6D5E0F322600C08C6C313C618C6C4
:101D030013C6D5E0F422700422600D18C6C333C68F
:101D130008C633C6D5E0F41822251810AF08F51805
:101D2300400C15198008F51840021519D2AF22008E
:101D3300C0D0251810AF08F518500C05198008F508
:101D43001850020519D2AFD0D0222518F58210AF52
:101D530008F518400C15198008F51840021519D21A
:101D6300AF851983222518F582E43519F5832225D9
:101D730018F8E43519F9222518FAE43519FB222558
:101D830018FCE43519FD22E4732518C582C0E0E58B
:101D93001934FFC583C0E0E518C3958224F810AF5A
:101DA300088583198582188008858319858218D24E
:101DB300AFCEF0A3E520F0A37808E608F0A3DEFA9F
:101DC300EFF0A3E58124FAF8E608F0A3E608F0A310
:101DD300E608F0A30808E608F0A3E608F0A31581D7
:101DE3001581D0E0FED0E0F8158115811581E8C09A
:101DF300E0EEC0E0222518C582C0E0E51934FFC536
:101E030083C0E0E518C3958224F910AF08858319D0
:101E13008582188008858319858218D2AFCEF0A3F6
:101E2300E520F0A37808E608F0A3DEFAEFF0A3E5D7
:101E33008124FBF8E608F0A3E608F0A30808E60807
:101E4300F0A3E608F0A315811581D0E0FED0E0F8F9
:101E530015811581E8C0E0EEC0E02285198385185D
:101E630082E0A3FEE0A3F5207808E0A3F608DFFAFA
:101E7300E0A3FFE0A3C0E0E0A3C0E0E0A3C0E0E094
:101E8300A3C0E0E0A3C0E010AF08858218858319E2
:101E93008008858218858319D2AFD083D08202014E
:101EA30032851983851882E0A3FEE0A3F520780824
:101EB300E0A3F608DFFAE0A3FFE0A3C0E0E0A3C0DD
:101EC300E0E0A3C0E0E0A3C0E010AF08858218857E
:101ED30083198008858218858319D2AFD083D08275
:101EE30022C0D02518C582C0E0E51934FFC583C0E0
:101EF300E0E518C3958224F310AF08858319858222
:101F0300188008858319858218D2AFC8F0A3E9F039
:101F1300A3EAF0A3EBF0A37908E709F0A3D8FAEC5E
:101F2300F0A3EDF0A3EEF0A3EFF0A3D0E0F0A3D085
:101F3300E0F0A3D0E0F0A3E520F0A3E5F0F0A322C6
:101F4300851983851882E0C0E0A3E0F9A3E0FAA332
:101F5300E0FBA37808E0F608A3DFFAE0FCA3E0FDCA
:101F6300A3E0FEA3E0FFA3E0C0E0A3E0C0E0A3E0A2
:101F7300F5D0A3E0F520A3E0A3F5F010AF08858327
:101F8300198582188008858319858218D2AFD0827B
:101F9300D083D0E0F8D0E03274048006740280026B
:101FA3007401C0E0F404121D4DD0E0121C2222740F
:101FB30004800474028000CCC0E0EDC0E0E518C3E7
:101FC3009CCCAD1950011D10AF068C188D198006DD
:101FD3008C188D19D2AF121C2FD0E0FDD0E0FC225B
:101FE300D083D082C5F0E493A3C5F0C395F0F5F098
:101FF300E493A3C395F04005E5F0048001E475F094
:1020030002A42582F582E5F03583F583E493A3C02A
:10201300E0E493C0E022D083D082E9C0E0E493A35C
:10202300C386F0C5F095F0F908E493A386F0C5F0F4
:1020330095F0700BE493A3C3994005E9048002A3D0
:10204300E475F002A42582F582E5F03583F583D0AB
:10205300E0F9E493A3C0E0E493C0E022D083D0820C
:10206300ECC0E0EDC0E0E493A3FCE493A3FDED4CEE
:10207300600D1220ABEC24FFFCED34FFFD80EFE498
:1020830093A3FCE493A3FDED4C600D1220EAEC2432
:10209300FFFCED34FFFD80EFD0E0FDD0E0FCE493E6
:1020A300A3C0E0E493C0E022C0E0C3E493960874C5
:1020B30001939618400FE4936670080874019366C1
:1020C3001870007019A3A3C3E49396087401939640
:1020D30018A3A3400DD0E0D0E0D0E002209BA3A33F
:1020E300A3A3A3A3D0E022C0E0C0F088F0E49366EA
:1020F30070080874019366187000A8F0A3A3700B0E
:10210300D0F0D0E0D0E0D0E002209BA3A3D0F0D069
:02211300E022C8
:1021180074F6121DF8EAFEEBFF8C088D09EE2434E4
:10212800F8E43FF9E8FCE9FD12224BE0FAEE243727
:10213800F582E43FF583E0F88508F0A4C885F00A45
:102148008509F0A4250AF9EA28F8E439F97A257B03
:1021580000121C91EA8C828D83F0FA131313541F1A
:10216800F8EE28F8E43FF9E8245DF582E439F583D0
:10217800E0C0E074075AF8D0E0B800028004C31346
:10218800D8FCA2E05003EA8020EE2436F582E43F32
:10219800F583E0F5F0EA84A8F0EE28F8E43FF9E8E2
:1021A8002438F582E439F583E0F97F03021EA4742C
:1021B800F5121DF8EAFEEBFFEE2434F582E43FF554
:1021C80083E0C0E012224BD0E0F08E828F83A3A37D
:1021D800A3A3A3E0FAA3E0FB8E828F83A3A3A3A308
:1021E800A3A3A3E0FCA3E0FDECC39AF50AED9BF5DD
:1021F8000BEE247FF508E43FF509850882F583E0B6
:102208006401702AEE2480F582E43FF583121FB63C
:102218001222557402121D32E960137CD67D0AEE33
:10222800FAEFFB120EA7850882850983E4F0AC0A51
:10223800AD0BEEFAEFFB122118E9F9122D357F04E8
:10224800021EA4EE2435F582E43FF58322C082C045
:1022580083851882851983E0F8A3E0F9C3EA9CEB2B
:102268009D5010C3EC98ED99401BC3EA98EB995028
:1022780014800EC3EA98EB994007C3EC98ED994097
:1022880004790180027900D083D08222EAC39CFAC3
:10229800EB9DFB2274ED121DF8900782E064086044
:1022A80005E06407702C9061C8E060269007B0E0F4
:1022B800F874FF68601CE875F00CA4C8AAF02AF945
:1022C80074B228FE740739FF8E828F83A3A3A3E01C
:1022D8007005790002243EEE2468F50EE43FF50F00
:1022E800906060E0850E82850F83F075107075111F
:1022F8000B750800750900E5D914F50AE5D95403EA
:10230800F50B601FEE2482F50CE43FF50D740365B0
:102318000B6059E50A6017EE2467F582E43FF58300
:10232800E0700B793DEEFAEFFB120ED780A4900B0C
:102338006BE064016023850C82850D83E060047A7C
:102348000480027A00E50AC39AFA95E0FB120C9120
:102358008A088B09EA450970061211D10222DA852A
:102368000C82850D83E070048A108B117A0080142A
:10237800E5D9C0E0EAF8E51028F582E43511F583DF
:10238800D0E0F00AEAC3950A40E6850C82850D8301
:10239800E0602874FC250AF50A7810121F9FAC0A21
:1023A800A90BEEFAEFFB120F917402121D32E970BD
:1023B8000AAA08AB0912177702232B7403650B606E
:1023C80054850A0C750D00780C121F9FAC10AD11C6
:1023D800AA08AB09120F557402121D32850E8285A8
:1023E8000F83E0F87480687005750C7F8002880C94
:1023F800E50CF50D780D121FA3780B121FA3A90A7F
:10240800AC08AD099007B0E0FA7B00120AB174027B
:10241800121D32801C900782E06408AC10AD117068
:1024280009EEFAEFFB120FC18007EEFAEFFB12106C
:102438007B1211DD79017F0C021EA474F3121DF8C2
:1024480074FC121D1CEAFEEBFF8909A2AFE433F508
:1024580008C2AFEE2463F50AE43FF50B8010AA0A20
:10246800AB0B120F0D121777900ADDE004F0850A06
:1024780082850B83E0F8A3E0F9E849602DE824029F
:10248800FAE439FBEA2402F50CE43BF50D780C126A
:102498001F9F8A828B83E0FCA3E0F9EEFAEFFB1220
:1024A8000F017402121D32E960B4900ADDE0604D3C
:1024B800900ADEE0F8900ADDE0C398500C740265DB
:1024C80009703A900ADFE060348E828F83A3A3A359
:1024D800A3E08518828519831225157402121D68D8
:1024E800E8122515900ADCE028F07402121D82AA71
:1024F80018AB197901120B11900ADDE4F0E508A276
:10250800E092AF7404121D327F06021EA4F0A3E409
:10251800F0900ADDE0F822008521878522C622C0D6
:10252800E074EB121EE4A2AFE433F508C2AF759B6A
:1025380000906182E0A2E05030E591A2E0502A7557
:1025480091FE7401652170211226BA1210D5122647
:10255800A8121FB2122ADF7404121D32E964017036
:1025680005790112112F12229C906182E0A2E55098
:102578005DE591A2E550577591DF900782E0640709
:102588006005E06408702F1226BA74016521703E58
:102598001210D51226A8121FB2122ADF7404121DB7
:1025A80032E964017005790112112F7901EEFAEF11
:1025B800FB1224438018E0640D70139007A4E00414
:1025C800F064287002E4F07A00E0F91211E39061F7
:1025D80082E0A2E6400302267DE591A2E6400302DE
:1025E800267D7591BF900782E0640570081210BDC2
:1025F8001210C980031210C375210012114DE99001
:102608000783F0790012112F120DC97A017B00900F
:102618000781E0F9121741907803E0644270569000
:102628000B6FE014F0704EC2AF12263400782AD037
:10263800E0F618D0E0F6E59F5407F87005750DFF31
:102648008003750D7FC4C0E07829E6F50A08E655D1
:102658000DF50B740B780A121CFAD0E0250AF890D5
:102668006270E0A2E740F8E8C333906272F09062CB
:1026780070E0D2E0F0906181E0A2E35009E5E9A2C0
:10268800E3500375E9F7A3E0A2E75009E591A2E753
:10269800500375917FE508A2E092AF7F08021F43BF
:1026A8008E828F83E0F8A3E0C82416F582E438F51B
:1026B80083229007B0E0F875F00CA4C8AAF02AF9B4
:1026C80074B228FE740739FF22C0E0C0D0C082C0AF
:1026D80083906183E0A2E05009E5BFA2E050037552
:1026E800BFFEE0A2E15009E5BFA2E1500375BFFDBE
:1026F800E0A2E25009E5BFA2E2500375BFFBE0A2E9
:10270800E35009E5BFA2E3500375BFF7E0A2E45028
:1027180009E5BFA2E4500375BFEFE0A2E55009E563
:10272800BFA2E5500375BFDFE0A2E65009E5BFA2EE
:10273800E6500375BFBFD083D082D0D0D0E032C07E
:10274800E074F2121EE4E5A7A2E4500FE5A1A2E4AA
:10275800500953A7EF75A1EF12279BE5A7A2E550F3
:102768000CE5A1A2E5500653A7DF75A1DFE5A7A2F6
:10277800E15009E5A1A2E1500375A1FDE5A7A2E298
:10278800500CE5A1A2E2500653A7FB75A1FB7F01FF
:10279800021F4374F8121DF8752101900782E06446
:1027A8000670077A007B001210A5A2AFE433FED2B0
:1027B800AF900788E0640170187A207B0090078149
:1027C800E0F91218737A207B00900781E0F912175C
:1027D80047906182E0D2E6F0900B6CE0602185C6FC
:1027E800228016900787E064017008E5C654F84413
:1027F80005F5C653BEFC1225207401652160E4EE80
:10280800A2E092AF7F01021EA40000008E238F2455
:10281800858228858327851882851983E0CEA3E0E1
:10282800CF852882852783EBC9EAC8EDCBECCA752A
:10283800F010C3E833C8E933C9EA33CAEB33CBC372
:10284800EA9EF526EB9FF525B35004AB25AA26ECA6
:1028580033CCED33CDD5F0DAAE23AF242274E912B0
:102868001DF874FA121D1CEAFEEBFF8C088D091284
:1028780010E7EAF8EBF9ECFAEDFB8E828F83121C75
:1028880016900782E024F7C39405500675100102DC
:10289800299C12101B8A0A8B0BEA450B700302292C
:1028A800991210DB8A0C8B0D1210DBEA650C700391
:1028B800EB650D60ECEEFCEFFDAA18AB191210E108
:1028C800850A82850B83A3A3780C121BD4908F3CB6
:1028D800780C121B888518828519837814121BD4EA
:1028E800908F3C7814121B88780C79141219AE500A
:1028F8001F780C7914121B4D908F64780C1219CE26
:102908004047850C10850D11850E12850F138045E3
:10291800908F648514108515118516128517137804
:1029280010790C121B4D78101219CE501C7510001E
:1029380075110075120075130178107914121B4D6A
:102948007810790C121B14800C7510017511007524
:10295800120075130074097810121AF5908F6878B0
:102968000C121BD47810790C121A6D900782E0644F
:1029780008600AE064066005E064057020908F6CCA
:1029880078101219CE5016908F707810121B27806D
:102998000C751000751100751200751300850882FA
:1029A8008509837810121BE37406121D327F10020A
:1029B8001EA474F7121DF81210F9900B6AE0640156
:1029C8007010906245E4F0A3F053F4F343FE0C5307
:1029D80090F3121093E5C654B84441F5C6E59E54E9
:1029E80047644170F8906185740FF0900B68E0F4CB
:1029F8007002A3E0602C750801750900900B68E06F
:102A08007808121D09E508F4FAA3E0600814600AC2
:102A180014600C800DEA52808008EA52908003EA24
:102A280052A079007F02021EA474F7121DF8E9FE75
:102A3800EAFF74016E700C7A807B00900781E0F9E0
:102A4800121741902E90E493F46008E493F9120D64
:102A5800AB800953C6B8E59E544770FA1210999096
:102A68000B6AE064017003120DE1900B68E0F470EA
:102A780002A3E0602B750801750900900B68E078E7
:102A880008121D09E508FAA3E0600814600A14603A
:102A98000C800DEA42808008EA42908003EA42A056
:102AA80012101B8A088B09A808A909E8496016E5CD
:102AB800E170FCE82414F582E439F583E0F874FF4A
:102AC80068600288E174016F700A7A01900781E0FA
:102AD800F91217DD022A2C74F1121DF88A088B09E5
:102AE8008C0A8D0B908F3C7808121B88740F121D6E
:102AF80068780C121BD4908F3C780C121B887808CD
:102B0800790C1219AE908F6450107808790C121B4A
:102B18004D78081219CE4014800E780C7908121BD3
:102B28004D780C1219CE50047901800279007F0883
:102B3800021EA474ED121DF88A088B098C0A8D0BED
:102B4800908F3C7808121B887413121D68780C1239
:102B58001BD4908F3C780C121B88780C79081219BA
:102B6800AE40117808790C121B4DAA08AB09AC0AC3
:102B7800AD0B8022751000751100751200751301D8
:102B88007810790C121B4D78107908121B14AA10B2
:102B9800AB11AC12AD137F0C021EA4908F3C7808C9
:102BA800121BD48A828B837808121B9B7F04021E17
:102BB800A474F5121DF88C828D837808121BD48AB0
:102BC800828B837808121B61122C0DC3E098F0A346
:102BD800E099122BFF401E908FAC7808121BD48A04
:102BE800828B837808121B3A8E828F83E02420F030
:102BF800A3E0344EF080A4F08E828F83C3E094204B
:102C0800A3E0944E22EA2404F8E43BF9E8FEE9FF45
:102C18008C828D83A3A3A3A3E0F8A3E0F98E828F0F
:102C2800832274F5121DF8E9FE900AF8E0FAA3E091
:102C3800FBEE29F8E433F974D228F582748E39F55D
:102C480083E02AF508A3E03BF5097808121F9F9056
:102C58008F94121BF21228147402121D328A088BE8
:102C6800098C0A8D0B74107808121ADCAA08AB09B3
:102C78007F04021EA474F1121DF88A0C8B0D8C0EB1
:102C88008D0F7411121D68121FB67411121D68E0A1
:102C98002401F508A3E03400F509E4F50AF50B78FA
:102CA8000C79081219ED908F7C7808121BD4780CD7
:102CB80079081219EDAA0CAB0DAC0EAD0F12281441
:102CC8007402121D328B09EA450960047A018002F8
:102CD8007A00EC2AFCE43DFD7413121D68E0F8A3A9
:102CE800E0F9E8FEE9FFECF8EDF97A717B02121CD5
:102CF8009188088909E4F50AF50B8E828F83780894
:102D0800121BE3ECF8EDF97A717B02121C918A0828
:102D18008B0974057808121D098E828F83A3A3A3DB
:102D2800A3E508F0A3E509F07F08021EA4C082C04D
:102D380083E9906000F0D083D08222C0E074F21260
:102D48001EE4A2AFE433FED2AFC2C0E5D1A2E45084
:102D58000675D10F1216C3751A00EEF8EEA2E092AE
:102D6800AF7F01021F43C0E0C0D0E8C0E0E9C0E087
:102D7800A2AFE433F8D2AFC2C7751A00E8F9E8A2E7
:102D8800E092AFD0E0F9D0E0F8D0D0D0E032C0E0A7
:102D980074F2121EE4A2AFE433FED2AF758900C20A
:102DA800C59012D97401F0751A007A019012D4E016
:102DB800F91217DDE9F890145CE0F990145DE06908
:102DC8007002D285EEF8EEA2E092AF7F01021F43B7
:102DD800C0E0C0D0E8C0E0E9C0E0EAC0E0C082C01E
:102DE80083A2AFE433FAD2AF90145CE0F890145D9C
:102DF800E068700B539AFB90145E7401F0802CC24B
:102E0800E990145CE0F874012890145CF07900747F
:102E1800DC28F582741339F583E0F5C190145CE081
:102E2800C39480400690145C7400F0EAF8EAA2E0CB
:102E380092AFD083D082D0E0FAD0E0F9D0E0F8D0D9
:102E4800D0D0E032C0E0C0D0E8C0E0E9C0E0C08245
:102E5800C083A2AFE433F8D2AF758A00C2EB9014F6
:102E68006C7401F0751A00E8F9E8A2E092AFD2AFED
:102E7800D083D082D0E0F9D0E0F8D0D0D0E032C210
:102E8800AF02000022020132FFFFFFFFFFFFFFFF3A
:102E9800C082C083E9901B91F0D083D082020132B6
:102EA80074F6121D8CE99006F4F0900754E0F508CA
:102EB80075090074027808121D09AA08AB091217CF
:102EC800C59006F512385B9006F5123C48606F9085
:102ED8000754E075F003A4FAABF01217C590071277
:102EE80012385B900712123C48700B9006F5123CA2
:102EF800191217CB8048900712124BAD7AFF7BFF4F
:102F08001215E57A0080198A087509007402780894
:102F1800121D0912465574FF12305BE4F0A3F00A43
:102F2800900754E0F8EAC39840DD790512097F90CC
:102F380006F4E0F912086B7A097B0A120C31024692
:102F4800F874F4121D8C8A088B09EB548060479042
:102F580006F4E0F91217298A0A8B0BAE0AAF0BEEBA
:102F68004F602A8E828F83E064B0701A120991E94B
:102F780060148E828F83A3A3A3A3E0F9EE2405FA3D
:102F8800E43FFB120961EEFAEFFB121717AA08E5F6
:102F9800096480FB80047A007B000231AB74F21272
:102FA8001D8C74FB121D1CEAFEEBFFEE4F6045748E
:102FB80003121D68EEF0A3EFF0851882851983ECE3
:102FC800F0A3EDF07402121D68E9F0AA18AB19120B
:102FD8000865E9F50870757413121D68E0F50AA311
:102FE800E0F50BE50A450B60638E828F831235E4AA
:102FF800EE4F700575080280537A067B001217C5DC
:103008008A0C8B0DA80CA90DE8497005750813806A
:103018003B88828983E412305BEEF0A3EF123177AC
:10302800E50AF0A3E50BF09006F81231709006F867
:103038006017E0FCA3E08003EAFCEBFD8C828D8343
:1030480012317070F38C828D83124270A908740556
:10305800024E2DF0A3124B8FA32274F2121D8C89FD
:1030680008890C750D007403780C121D09850C0A6B
:10307800850D0B9006F7F09006F512407B12316E25
:10308800602E1217CB7900801D890C750D00740213
:10309800780C121D099006F51245148882F583A351
:1030A800A3E4F0A3F009900754E0F8E9C39840D9E5
:1030B800900754E0FA850AF0A4CAA8F0850BF0A49A
:1030C80028FB1217C58A0C8B0DAE0CAF0DEE4F7096
:1030D80003023164900754E0FC850AF0A4CCA8F000
:1030E800850BF0A428FD79001217057C0080318D2E
:1030F8000C750D007403780C121D098A828B8312DB
:10310800316988828983E4F0123176A3A3F0A3F0B1
:103118000DEDC3950840D8EE250AFEEF350BFF0CE0
:10312800900754E0F8ECC39850288C0C750D007487
:1031380002780C121D099006F5123169E824025034
:103148000109FAE9FB8A828B83EEF0A3EFF07D0098
:1031580080BFE5089006F7F0790080027913024EE7
:1031680030124518F922A3A3123C1DEA4B22A312E0
:103178004B8FA3A3A32274F4121D8C7900EAA2E05A
:10318800501F75080E75098F7808121F9F79107CDB
:10319800047D007A937B1B1209797402121D32E9AF
:1031A800F980007F04021E5EC082C0839006F81278
:1031B8003C48601C88828983A3A3E06A7003A3E06B
:1031C8006B8882898370E8A3A3A3A3123C198004A7
:1031D8007A007B00022EA174F2121D8C74FD121D60
:1031E8001CEAFEEBFF851882851983E4F0A3F074CE
:1031F80002121D687401F0123C457014120B65121E
:1032080017C59006FB12385B123C457003023371F8
:1032180012395BEE2404F50AE43FF50B850A82F5C2
:1032280083E024FE603C24FC607424FE607E24FE5F
:1032380070030232C124FE70030232CE24FE7003F2
:103248000232DB24FE70030232E824FE70030232ED
:10325800F524FC700302331624FE700302332E0299
:10326800336A120B659006FDEAF0A3EB12337D1268
:10327800047BE9600302336A9006FD121FB68E8252
:103288008F83A3A3A3A3A3124BAD850882850983CB
:10329800123C191209497402121D3202336AAC1821
:1032A800AD19EEFAEFFB120997023339AC18AD19D4
:1032B800EEFAEFFB12099D8078AC18AD19EEFAEF23
:1032C800FB1209A3806BAC18AD19EEFAEFFB1209DB
:1032D800A9805EAC18AD19EEFAEFFB1209AF805168
:1032E800AC18AD19EEFAEFFB1209B580447402125E
:1032F8001D72880C890D780C121F9F7402121D8292
:10330800EEFAEFFB1209BB7402121D328023AC18CF
:10331800AD19EEFAEFFB1209C1E9F8701674021242
:103328001D68E4F0803CAC18AD19EEFAEFFB120909
:10333800C7E9F8E8602C8E828F83A3E064146022CA
:10334800850A82850B83E09006FDF0851882851931
:1033580083123C199006FE12385BE8A312337D12E3
:103368000475EEFAEFFB12091F7402121D68E0F9EA
:103378007403024E2DF07CFD7D0685088285098345
:10338800123C1D2274E8121D8C74FA121D1C740460
:10339800121D68ECF0A3EDF08A128B13EA2405F5F0
:1033A8000EE43513F50FEA2402F510E43513F51190
:1033B800851082F583123C191205AD8A0A8B0B75AC
:1033C80008007C037D0079007AFD7B06121705E56D
:1033D8000E2402F516E4350FF5177402121D7288D3
:1033E8000C890D780C121F9F850E82850F83A3A36D
:1033F800A3A3E0F50C750D00780C121F9FE50E24B1
:1034080005F50CE4350FF50D780C121F9F85168213
:10341800851783123F201208837406121D328A0C06
:103428008B0DE50C450D70030235AD8020851882A3
:10343800851983E088828983F005088518828519B3
:1034480083A3E0C0E01235EED0E0F00508E50A24D9
:10345800FBFAE50B34FFFBC3E5089AE49B40030243
:1034680035AD7E007F00851282851383A3A3A3A3B5
:10347800E0F5097809121FA3E4F514F5157814127C
:103488001F9F7514FA7515067814121F9F9006FB76
:10349800121FB67409121D68121FB6E50A24F9F93D
:1034A800AC0CAD0D851082851183123C191209F1FF
:1034B8007409121D32E9600302354E850E82850FAC
:1034C80083A3A3A3A3A3A3A3E0F89006FAE06870DC
:1034D80075E0F5148E157814121F9F124BAA850EED
:1034E80082850F83A3A3A3A3A3A3A3A3123C1912AA
:1034F80016FF7402121D32E9604C9006FE123C4819
:10350800703BE4F5147814121F9F7CFF7DFF790748
:10351800851082851183123C1912095B7402121DF1
:1035280032123C4E7017850E82850F83124D4774F8
:1035380004121D68124608123F510235E1850C82BB
:10354800850D831235E4A818A919881489157814EB
:10355800121F9F7404121D68121FB68516828517E4
:103568008312385112088F7404121D328A0C8B0D85
:10357800EE4F700302342A1235EEEE1235F9123F7F
:1035880007EF1235F9F8A3E03400F9E50C450D60B2
:10359800030234358882898374FFF005081235EEFA
:1035A80074FFF00508E508601A1313543F123861D8
:1035B800120487E960099006FE123C191217777900
:1035C800008016850E82850F83124D477404121DE4
:1035D80068124608124270790A023EDAA3A3A3A32E
:1035E800E0FEA3E0FF22A8089006FEE028123F07AD
:1035F80022F00508089006FEE0282274E8121D8CC7
:1036080074FA121D1C7402121D6812385B740412BD
:103618001D68ECF0A3EDF07402121D68E024051299
:103628003EF0E0F50CA3E0F50D7402121D68E024ED
:1036380002F510A3E03400F511851082F583123CE1
:10364800191205AD750800750900EA24FCFEEB3473
:10365800FFFF8008050CE50C7002050DA808C3EEF5
:1036680098EF9400500302380DA818A919880E89FC
:103678000F780E121F9F851482851583A3A3A3A319
:10368800124BB1121F9FE5142405F50EE43515F50C
:103698000F780E121F9F85148285158312384F12DA
:1036A80008837406121D328A0E8B0FEA450F7003C9
:1036B80002380DEA2404F516E4350FF5178516824D
:1036C800F583E0F50CA3E0F50D85188285198312C2
:1036D8004BAD8A828B83A3A3A3E0F9851082851161
:1036E80083123C19120871E9F509600302380D7458
:1036F80002121D68123F17F5097809121FA3E4F595
:1037080012F5137812121F9F7512FA7513067812A4
:10371800121F9F9006FB121FB67407121D68121F16
:10372800B6EEF9AC0EAD0F851082851183123C19E7
:103738001209F17409121D32E9F509600302380D06
:10374800E508703FE4F50EF50F780E121F9F7CFF19
:103758007DFF7909851082851183123C1912095B56
:103768007402121D32123F3D700D7404121D68124E
:10377800384479110238419006FAE024029006FE96
:10378800F080149006FEE0FA9006FAE07900240230
:103798005001096A497072A8089006FAE0FAE82A06
:1037A800FAE43400FBEE9AEF9B405A85168285179F
:1037B80083E0C0E09006FF1235F3D0E0F0050885FD
:1037C8001682851783A3E0C0E0089006FF1235F340
:1037D800D0E0F005089006FA124BB1121F9F124B69
:1037E800AAA808123EE41216ED7402121D329006C1
:1037F800FAE02508F50874FF650C700474FF650D80
:10380800600302365CE508601F9006FEE0F5F0E50F
:10381800088412386112048DE960099006FF123C91
:103828001912177779008011E509700375090A7470
:1038380004121D68123844A909023EDA12407FE5D5
:103848000CF0A3E50DF022A3A3124E3CAA0CAB0D7D
:1038580022A3A3EAF0A3EBF0229006FDF07CFD7D05
:1038680006851082851183123C1D2274EC121D8C72
:1038780074FC121D1C1243807402121D82123C1328
:103888001208898A0C8B0DEA450D700302394B1218
:10389800395BA818A919881089117810121F9F7C04
:1038A800FF7DFF790B850882850983123C1912096F
:1038B8005B7402121D32123A51700C850A82850B14
:1038C80083123F4E0239588E828F83A3A3A3A3E0AD
:1038D800F5127812121FA3E4F512F5137812121FCD
:1038E8009F7512FD7513067812121F9F7810121F0C
:1038F8009F7409121D68121FB67409121D68E0F939
:10390800AC0CAD0D850882850983123C191209F1AA
:103918007409121D32E9FE70157CFD7D068508824A
:10392800850983123C19120493E9700980207416E2
:103938006E70027E009006FE123C19121777EE7028
:1039480004800B7E01850A82850B8312426DEEF995
:10395800024282EE2402F508E43FF5092274EC12D3
:103968001D8C74FC121D1CEAFEEBFF8C0E8D0FEEF5
:103978002405F508E43FF5097402121D82850882C2
:10398800850983123C191208898A0C8B0DEA450DAA
:103998007003023A41EE2402F50AE43FF50BA81839
:1039A800A919881089117810121F9F7CFF7DFF7953
:1039B8000D123C1312095B7402121D32123A517037
:1039C8000B850882850983123F4E807A8E828F8309
:1039D800A3A3A3A3E0F5127812121FA3850882857A
:1039E8000983A3A3121FB67512FD75130678121268
:1039F8001F9F7810121F9F7409121D68121FB6743A
:103A080009121D68E0F9123C0F1209F17409121D20
:103A180032E9FE700F7CFD7D06123C13120499E911
:103A28007009802074166E70027E009006FE123CAB
:103A380019121777EE7004800B7E018508828509BC
:103A48008312426DEEF9024282123C58F510A3E04F
:103A5800F511EA45112274E8121D8C74FE121D1C22
:103A68008A168B178C148D15EA2405F50CE4351786
:103A7800F50DEA2402F50EE43517F50F850E82F5EB
:103A880083123C191205AD8A088B09750B007C035B
:103A98007D0079007AFD7B06121705750A00E50896
:103AA80014F5100424FFF508E50934FFF5098054DE
:103AB8009006FDE0FA9006FAE0F8EA28F8E4340007
:103AC800F9E50898E50999500D9006FDE0F8E5102C
:103AD800C3989006FAF0E0F5127513007812121FD9
:103AE8009F124BAA9006FEE02AFAA3E03400FB12CC
:103AF80016ED7402121D329006FAE0F89006FDE009
:103B080028F0050A850C82850D83A3A3124524405D
:103B180003023BF49006FDE0C39508E495094003D1
:103B2800023BF4AE0AEE2EFEE433FF123C33AC182F
:103B3800AD19124BC5E439FB1208898A128B13ACF4
:103B480012AD13EC4D701B750B01123C2312427120
:103B58009006FE1231706003121777A90B740202E7
:103B68003EDC851682851783A3A3A3A3E0F50B7813
:103B78000B121FA3E4F512F5137812121F9F75128A
:103B8800FA7513067812121F9F9006FB121FB6745F
:103B980007121D68121FB6A910850E82850F8312A1
:103BA8003C191209F17409121D32E9F50B709B904A
:103BB80006FE123C486003023AB8E4F512F51378A1
:103BC80012121F9F7CFF7DFF790F850E82850F8360
:103BD800123C1912095B7402121D32123C4E60032A
:103BE800023AB8123C23123F52023B657CFD7D0627
:103BF800850E82850F83123C1912049FE960030227
:103C08003B587900023B65AC0CAD0D850A82850BEB
:103C180083123C1D22E0FAA3E0FB22123C33E0FAB7
:103C2800A3E0F9EA85148285158322850C82850D27
:103C380083E02EF8A3E03FF988828983229006FB6F
:103C4800124D4BE84922123C58F8A3E0F9E8492202
:103C58009006FEEAF0A3EBF09006FEE02274E8126C
:103C68001D8C74FA121D1C7404121D6812385B8CAA
:103C7800168D177404121D68E02405F50EA3E034B0
:103C880000F50F7404121D68E02402123EF0123C85
:103C9800191205AD8A0A8B0B7F007E00A818A91996
:103CA800880889097808121F9F850E82850F83A3CB
:103CB800A3A3A3E0F5088E097808121F9FE50E2438
:103CC80005F508E4350FF5097808121F9F850E825F
:103CD800850F83A3A3123F201208837406121D3296
:103CE8008A0C8B0D8029123F11F00F123F11F00F33
:103CF8009006FA12425C121F9F124BAAEFF8123E6E
:103D0800E41216ED7402121D329006FAE02FFFE558
:103D18000C450D7003023DA0851882851983124356
:103D280092A3A3A3E0F9851482851583123C191286
:103D38000871E9FEE50C2404F510E4350DF511EEE3
:103D480070507404121D68123F17F5087808121F86
:103D5800A3E4F508F5097808121F9F7508FA750994
:103D6800067808121F9F9006FB121FB67407121DD3
:103D780068121FB6E50A24FAF9AC0CAD0D85148259
:103D8800851583123C191209F17409121D32E9FED6
:103D98006039123F2D124270EF7003023EC7900641
:103DA800FEE0F5F0EF849006FDF07CFD7D068514BD
:103DB80082851583123C191204A5E960099006FF53
:103DC800123C191217777900023EDA8F08EF703B20
:103DD800E4F512F5137812121F9F7CFF7DFF79110D
:103DE800851482851583123C1912095B7402121D11
:103DF80032123F3D7009123F2D123F51023EDA90B8
:103E080006FAE024049006FEF080359006FAE0F801
:103E18009006FEE0FAE82404FCE43400FDEC6A4D68
:103E28006003023DA6E50A24FAFAE50B34FFFBE538
:103E38000828F8E43400F9EA98EB995003023DA603
:103E4800851082851183E0C0E09006FFE02FF8A37B
:103E5800E034008882F583D0E0F00F851082851168
:103E680083A3E0C0E0123EFED0E0F00F7402121D02
:103E780072880889097808121F9F7402121D681237
:103E88001FB6850E82850F8312384F12088F74046F
:103E9800121D328A0C8B0DEA450D7003023CEE743C
:103EA80002121D68E0C0E0123EFED0E0F00F74027E
:103EB800121D68A3E0C0E0123EFED0E0023CF6EE20
:103EC80070027E0A850E82850F83123F331242707C
:103ED800EEF97406121D327F10021E5E9006FFE096
:103EE80028FAA3E03400FB22F514A3E03400F5150A
:103EF800851482F58322123F02229006FFE02FFAF2
:103F0800A3E034008A82F58322123F0274FF221252
:103F1800407FA3A3A3A3E022124E3C850E82850F07
:103F280083123C1D22851082851183124D4B851604
:103F380082851783229006FFEAF0A3EBF09006FF34
:103F4800124D4BE84922124276E8F0A3E9F07911C4
:103F58002274EA121D8C74FE121D1C8A088B098CAF
:103F6800128D13EA2405FEE43509FFAC18AD198E4D
:103F7800828F83123C191208898A0C8B0DEE240655
:103F8800F50EE43FF50FEA450D7003024051E508D0
:103F98002402F50AE43509F50B8A828B83A3A3A3CF
:103FA800E0A2E55028851882851983123C19120968
:103FB800E58A108B11EA451160207912123C0F85B1
:103FC8001082851183121D8AE9F50C707F850E8297
:103FD800850F83E0600979528011750C0E806D851C
:103FE8000882850983A3A3A3A3E0F9E4F508F509EA
:103FF8007808121F9F8E828F83A3A3E0F5087808A4
:10400800121F9F8E828F83A3A3A3121FB68E828F47
:1040180083124BAD123C131209F77406121D32E9D4
:10402800F50C7011850E82850F83E0702D123C13FC
:104038001204AB80257416650C7011750C00741889
:10404800121D6812407BE48010750C01124D4385E7
:104058001282851383E8F0A3E9F0850E82850F8329
:10406800E0600479008002A90C7402121D327F0EF0
:10407800021E5E12407F22E0F8A3E0F583888222C8
:1040880074EC121D8C74F7121D1C8A0A8B0B8C1091
:104098008D11EA2405FEE4350BFF750C00AC18AD54
:1040A800198E828F83123C191208898A088B09EAB3
:1040B80045097003024247E50A2402F50A50020541
:1040C8000B8A828B83A3A3A3E0A2E5502F851882D5
:1040D800851983123C191209E58A0C8B0DEA450DE6
:1040E800604F7912AC08AD09123C13850C82850D1E
:1040F80083121D8AE9F50C600302424A850A82850B
:104108000B83E0F508A3E0F509AA08FB1209D9EA30
:104118004B70197AFF7BFF1209D9EA4B70030242F0
:104128003D8A828B83E508F0A3E509F075080080D5
:1041380008750C0E02424A05089006F7E0F8E508F3
:10414800C398400302423D85080E750F007403783A
:104158000E121D098A828B83A3A3E0250EF8A3E023
:10416800350F12461170D08E828F83124265123835
:104178005B8E828F83A3A3124265123859EE240402
:10418800F508E43FF509850882F583E0888289838C
:10419800A3A3A3A3F0A3E4F0EE2405F50EE43FF5F2
:1041A8000F850E82F583124265A3A3A3A312385983
:1041B8007512077513007812121F9FEEFCEFFD743D
:1041C80004121D7A1216ED7402121D32E4F51278EB
:1041D80012121F9F850882850983E0FC7D007917EC
:1041E800123C1312095B7402121D327407121D6807
:1041F80012385B7407121D68E0FA4B603D8508822F
:1042080085098312425C121F9F850E82850F8312D7
:104218004BAD1216ED7402121D327402121D821279
:104228003C131204B1E960267407121D68123C1988
:104238001217778019750C098008750C11800375A1
:104248000C01124D43851082851183124270A90C0E
:1042580074098028E0F508750900780822123C1DC9
:104268008882898322124276E8F0A3E9F022E0F8F6
:10427800A3E0F9850E82850F83227404121D327F14
:104288000C021E5E74EC121D8C124380751000EE39
:104298002402F50CE43FF50D850C82F583123C19D8
:1042A8001209D98A088B09EA450970030243648513
:1042B8000A82850B83E064016003024359AC08ADB0
:1042C80009AA0AAB0B1209CDE9606E850882850937
:1042D800831235E6EE2406F50AE43FF50B8E828F4D
:1042E80083A3A3121FB68E828F83A3A3A3A3121F37
:1042F800B6850A82850B83121FB679188E828F8342
:10430800124392123C191209F77406121D32E9F889
:10431800741668700B850A82850B83E4F0A38014F9
:10432800E860128E828F83123C19850E82850F8376
:10433800EAF0A3EBF088108018780E121F9FAC08E3
:10434800AD09EEFAEFFB1209D37402121D32E9F53A
:1043580010AA08AB091209DFE510700E850C8285DA
:104368000D83123C191204B7800974166510700386
:10437800751000A910024287EAFEEBFF8C0E8D0F24
:10438800EE2405F50AE43FF50B22124E3C850C821B
:10439800850D832274EA121D8C7508007509007E4C
:1043A800007F00750A00EC2402F510E43DF5118049
:1043B80035EC65087003ED65096003024451888295
:1043C8008983A3A3E06A7003A3E06B707C88828969
:1043D80083A3A3A3A3124D47EE28FEEF39FFEA28D3
:1043E800FAEB39FB050A124521503A850A0C750D7E
:1043F800007403780C121D098510828511831245FB
:1044080014124611601FE508450970A58C088D092E
:10441800888289831235E488828983A3A3E02EFAEF
:10442800A3E03F80BEE50AC39402500302450F751E
:104438000800750900EE4F6010EEFAEFFB121771D5
:104448008A0E8B0FEA450F70057900024511750B2E
:10445800000244E4850B0C750D007403780C121DE2
:1044680009851082851183E0250CF50CA3E0350D34
:10447800F50DE50C2406F514E4350DF515851482C3
:10448800F5831246166042E50C2404F512E4350D56
:10449800F513851282F583121FB6E50E2508FAE595
:1044A8000F3509FB1216ED7402121D328512828532
:1044B8001383E02508F508A3E03509F5098514827A
:1044C800851583123C19121777E50B600D7C087D62
:1044D800007900AA0CAB0D121705050BE50BC39567
:1044E8000A500302445C851082851183124D478867
:1044F800828983A3A3A3A3A3A3E50EF0A3E50F12C8
:104508003177EEF0A3EFF0790102407612451822D8
:10451800E0250CF8A3E0350D229006F7E0F8E50A4F
:10452800C3982274F0121D8C8A0E8B0F8C0A8D0B87
:10453800750D00750C0080507916EE2406F508E418
:104548003FF5098E828F83A3A3121FB68E828F83B5
:10455800A3A3A3A3121FB6850882850983121FB6D9
:10456800850E82850F83A3A3123C191209F77406DE
:10457800121D32E9F50D7416650D706C850882857B
:104588000983E4F0A3F0050C9006F7E0F8E50CC306
:10459800985066AA0C8A0875090074037808121DD9
:1045A80009850A82850B83A3A3124660E8FEE9FF0A
:1045B8008E828F831246166040EA2401F508E4349F
:1045C80000F5099006F7E065087002E509601488AF
:1045D800828983A3A3A3A3A3A3A3A3123C48600334
:1045E8000245407918024542E9609B124D43741018
:1045F800121D68124608124270A90D7F08021E5E3D
:10460800E0FAA3E0F5838A8222F988828983124E30
:104618003CEC4D2274F6121D8C7C0080010C900736
:1046280054E0F8ECC398501E8C08750900740278A1
:1046380008121D09124655E06A7003A3E06B70DD8D
:10464800E8FAE9FB80047A007B000246F89006F558
:104658001246608882898322E02508F8A3E035099C
:10466800F92274F2121D8C8A088B09750A008027BA
:104678008E828F83A3A3A3A312316E6003121777D0
:104688007C087D007900EEFAEFFB1217058E828F09
:1046980083E4F0A3F0050A1245215027850A0C751A
:1046A8000D007403780C121D09850882850983A3FF
:1046B800A3E0250CFEA3E0350DFF8E828F83123C0C
:1046C8004870AD85088285098374FFF0A3F0024E17
:1046D8003074F6121D8C12098B8A828B83E5824511
:1046E8008370067A007B008007A3A3A3A3123C195A
:1046F8007F02021E5E74F4121D8C89088C828D83E1
:10470800E06402703C124CE6FEA3E0F9EEF8740295
:104718006870037429697029750A02750B00780A94
:10472800121F9F7410121D68121FB67410121D6894
:10473800121FB6A9081215EB7406121D32E9F9808A
:104748000279010231AB74E8121D8C74FB121D1C36
:10475800E9851882851983F08A168B17ECFEEDFF20
:104768007510008E828F83A3A3A3E0A2E4502D745A
:104778001D121D68123C191209E58A828B83E58295
:1047880045837003024B85790AEEFCEFFDAA16AB50
:1047980017121D8AE9F5106003024B88741F121D59
:1047A80068E0F508A3E0F5097421121D68E0F50A30
:1047B800A3E0F50B7423121D68E0F50EA3E0F50FD6
:1047C8008E828F83E064026003024B26A3124D475A
:1047D800850882850983A3858212858313EE2406C2
:1047E800F50CE43FF50D88828983124BC5F514E476
:1047F80039F515781412205F01000028012828488F
:1048080007000228ED4803285B4800291C4A0129B3
:10481800474A0229E84903291C4A0429C04A264B69
:10482800E50E450F6003024B21850C82850D83122E
:104838004D47E8FAE9FB8A828B83E0850A82850B7B
:1048480083124BD0121F9F8A828B83A3E0FCA3E0C4
:10485800024AAAE50E450F6003024B21850A8285AC
:104868000B837401F0124BBA850882850983F07CAA
:10487800007D008E828F83A3A3A3A3E02401FAA363
:10488800E03400FB120889EA4B60408A828B83E09F
:104898002402F8850A82850B83E028F0EA2404F8CC
:1048A800E43BF988828983E0851282851383124B61
:1048B800DE124BD0121F9F8A828B83A3124BADE569
:1048C800082403FAE43509FB024AAF850A82850BFE
:1048D80083E02404F07C047D007900AA12AB131253
:1048E8001705024B88E50E450F6003024B21124B5A
:1048F800BAFEA3E0FF850A82850B837404F0EE8577
:104908000882850983F0EF851282851383F074038A
:10491800121D82EEFAEFFB1208898A0C8B0DEA450C
:104928000D70030249CB8A828B83A3A31235E474EA
:1049380001121D72880E890F780E121F9F740512BE
:104948001D68121FB67CFF7DFF12088F7404121DAC
:10495800328B0FEA450F7033850C82850D83124B1D
:10496800B1121F9F850C82850D83A3121FB67C028E
:104978007D007AE67B8F12059B7404121D32E97064
:104988000A7401121D6874FFF0A3F08E828F83E011
:1049980064027039750C02750D00780C121F9F8E19
:1049A800828F83A3124BADE5082404FAE43509FB92
:1049B8001216ED7402121D32850A82850B83E024DB
:1049C8000280097401121D68EEF0A3EFF074011261
:1049D8001D68124B9F7401121D68124B96024B1BE7
:1049E800E50E450F6003024B21850C82850D83126D
:1049F8004E35AA16AB171215F1850A82850B8374FA
:104A080002F0850882850983EAF08512828513837E
:104A1800EB024B1EE50E450F6003024B21124BBA09
:104A2800F8A3E0F9850A82850B837402F0E885080B
:104A380082850983F0E9851282851383024B1E85DE
:104A48000C82850D83123C191216E7EAFAF8C39511
:104A58000EE4950F405CE8650E450F70047A0080FF
:104A680021851882851983E0FCE50E2CFCE4350FBE
:104A7800FDC3EC98ED94005003E08005E50ECAC331
:104A88009AFAEA850A82850B83F08A0A750B007800
:104A98000A121F9F850C82850D83E0250EFCA3E07A
:104AA800350FFDAA08AB091216ED7402121D320269
:104AB8004B88751007024B88E50E450F705B850C17
:104AC80082850D83124D47850A82850B837407F012
:104AD80088828983124B97124B8FE0851282851347
:104AE80083F0E82402FAE439FB8A828B83124B9F15
:104AF8008A828B83124B96A3A3123176124BA4F0B1
:104B0800E82405F850010988828983124BA4A3126E
:104B18004BDEA3A3A3A3F0806775100B8062741DFE
:104B2800121D68123C1912098B8A828B83E5824513
:104B380083604A124D47880C890DE8450D603E7424
:104B480025121D68E0F5107810121FA3780E121FA9
:104B58009F780A121F9F7808121F9F7407121D68FA
:104B6800E0F9EEFCEFFDAA16AB17850C82850D83E4
:104B7800121D8A7407121D32E9F510800375100E94
:104B8800A9107405023EDCF088828983A322A3E081
:104B980085088285098322124BE5F022124BE5A392
:104BA800A3229006FB124E3C22E0F50E750F00780A
:104BB8000E22850C82850D8312407FE022E0FAA345
:104BC800E0F8E4C8F9EA2822F08A828B83E0F50A43
:104BD800750B00780A22124B8F124BE522E08508EC
:104BE80082850983A3A32274EE121D8C74FE121D04
:104BF8001C8A088B09ECFEEDFF890AAC18AD19EE8A
:104C0800FAEFFB1208898A0C8B0DEA450D70030236
:104C18004CD7851882851983123C1912098B8A8210
:104C28008B83E58245837003024CD2A3A3124D47C0
:104C3800880E890FE8450F7003024CD27414121DB8
:104C480068E0F510A3E0F511E50AF50B780B121FE3
:104C5800A37419121D68121FB67810121F9F741BB7
:104C6800121D68E0F9AC0CAD0DAA08AB09850E82DF
:104C7800850F83121D8A7405121D32E9F50B7052D7
:104C880074FE650A604C850C82850D83E0640270B1
:104C980041124CE6FAA3E0F9EAF87402687003746A
:104CA8002969702E851082851183124BC5F50CE495
:104CB80039F50D780C121F9FEEFCEFFDAA08AB0921
:104CC800120A0F7402121D328008750B0E800375CC
:104CD8000B01A90B7402121D327F0A021E5EA31279
:104CE8004D4B88828983E02274F6121D8C74FE1263
:104CF8001D1C740C121D68124D47E8851882851911
:104D080083F07401121D68E9F0E4F508F5097808E4
:104D1800121F9F7508027808121F9F7404121D72D3
:104D2800880889097808121F9F79FE1209F7740606
:104D3800121D327402121D320246F88E828F8312BF
:104D48004D4B22E0F8A3E0F92274F7121D8CEAFE1D
:104D5800EBFF8908900712124BAD1215F1EA5402C5
:104D6800600BA908EEFAEFFB12087D800279017F3B
:104D780001021E5E74F2121D8C74FE121D1CEAFEE6
:104D8800EBFF890A7401650A60147402650A6003FE
:104D9800024E2B7901120C4FE96003024E2BEEFAFA
:104DA800EFFB1209D9EA4B60031209DFA818A91909
:104DB800880889097808121F9F7508027509007804
:104DC80008121F9F7508E075098F7808121F9F7CCD
:104DD800FF7DFF7A017B001208837406121D328062
:104DE80038850882850983A3A3A3A3A3A3124E35FC
:104DF800EEFAEFFB1215E5E4F50CF50D780C121F31
:104E08009F7402121D68121FB67CFF7DFFAA08ABB3
:104E18000912088F7404121D328A088B09E50845A7
:104E28000970BE7402121D327F06021E5E12407F98
:104E3800124E3C22E0FCA3E0FD2274F4121D8C8A81
:104E4800088B09ECFEEDFF901B91E0F4604B7A09AA
:104E58007B00121711EA4B60408A828B8374B1F091
:104E6800A3E4124EA4F08A828B83A3A3E508F0A3DF
:104E7800E509124EA4A3EEF0A3EFF0740C121D681E
:104E8800124D478A828B83A3A3A3A3A3A3A3124291
:104E980070901B91E0F912171D0231ABF08A828BDA
:104EA80083A3A3A3A32274EE121D8C74FA121D1CF3
:104EB8008A0A8B0BE9FF8C088D097E00850A0C8510
:104EC8000B0D780C122019000410AC51F64E194F36
:104ED800384F5B4F7E4FA14FD24FF54F0C503C508F
:104EE800EB500E5131515F51AC518A5165507401EC
:104EF8006F7019850882850983E0C39403500D8576
:104F08000882850983E0901BDBF080027E1802513D
:104F1800D474026F7015850882850983E0F8A3E0D0
:104F2800F9901BDCE8F0A3E9F080027E180251D466
:104F380074016F7019850882850983E0C394025053
:104F48000D850882850983E09011F3F080027E18B0
:104F58000251D474016F7019850882850983E0C3F2
:104F68009405500D850882850983E09011F4F0803E
:104F7800027E180251D474016F7019850882850960
:104F880083E0C39402500D850882850983E090115F
:104F9800F5F080027E180251D474106F7027750CDA
:104FA80010750D00780C121F9FAC08AD097AF67BBE
:104FB800111216ED7402121D328A0C8B0D850C82AB
:104FC800850D8380027E180251D474016F70198593
:104FD8000882850983E0C39402500D8508828509FB
:104FE80083E0901206F080027E180251D474016F9B
:104FF800700D850882850983E0901BDFF080027EB2
:10500800180251D474046F7026908F94780C121B78
:10501800D4850882850983780C1219BE5011850839
:1050280082850983121C0A901208121C1680027EBF
:10503800180251D4EF7021120793E9701312158BDF
:10504800E9F50D7950121849E9F50C121579800A1D
:1050580090129B7401F080027E180251D474076F7D
:10506800707C750E06750F00780E121F9F850882DA
:10507800850983A3AC82AD837402121D7A1216F3DC
:105088007402121D328A108B1185100E85110F7C47
:10509800007D00AA18AB19850882850983E0F912FA
:1050A800151FE9F50CE50CC3940A502E120793E975
:1050B8007015A90C121591E9F50E7950121849E9E5
:1050C800F50D1215798019A80C7900749C28F582C1
:1050D800741239F5837401F080067E0280027E180E
:1050E8000251D474016F7019850882850983E0C361
:1050F8009402500D850882850983E0901207F0809C
:10510800027E180251D474016F70198508828509CE
:1051180083E0C3940A500D850882850983E0901BBB
:10512800DEF080027E180251D474016F7025850864
:1051380082850983E0C3940740198508828509831D
:10514800E0C39411500D850882850983E0901BE027
:10515800F080797E18807574016F702290129AE041
:10516800F50C850882850983E090129AF0E50C70A9
:105178005B90129AE064017053121579804E7E1884
:10518800804A74016F7019850882850983E0C39489
:1051980004500D850882850983E0901BE1F0802C7E
:1051A8007E188028C3E50A9427E50B9400501B74E9
:1051B800026F7016850882850983E0FCA3E0FDAACA
:1051C8000AAB0B120613E9FE80027E02EEF97406A2
:1051D800121D327F0A021E5E74EC121D8C74DA12E4
:1051E8001D1C890D8A128B13ECFEEDFF743A121DFB
:1051F80068E0F50C908F14AC18AD197406121C2FCA
:10520800AC18AD19AA12AB13A90D12151FE9F508B0
:10521800E508C3940A400302535EA90812155BE926
:10522800F509901BDBE064027004740180027400CD
:10523800F50A780A121FA3AD0CAC09A908EEFAEF1B
:10524800FB1215CD7401121D327C147D0079007497
:1052580012121D7A1217058A0E8B0F850E0A850FFA
:105268000B7412121D827A1075F006E508A4242426
:10527800F9121843E9703E7C1079FF7412121D7AF6
:10528800121765E9702F7422121D68AC82AD837AFB
:105298000475F006E508A42425F9121843E9F50A6F
:1052A8007412121D82E509A2E0E433F9EEFAEFFB6D
:1052B80012069DE9F87406121D827A0C747025088E
:1052C800F9121843E970797406121D7A12154F7590
:1052D8000E00E50EC394045067A80E7900E875F037
:1052E80003A4C8AAF075F000A42AFA75F003E9A48B
:1052F8002AF97406121D68E58228F50AE58339F54E
:105308000B850A82850B83E0F8A3E0F9E849602C55
:10531800850A82850B83A3A3E0F510751100781028
:10532800121F9F850A82850B83E0FCA3E0FDEEFA3D
:10533800EFFB1209FD7402121D32E9F8050E809286
:10534800E509A2E1506D9011F2E0F9EEFAEFFB12D7
:105358000A03E9F8805D7408650C7057901BDBE060
:105368006402704F7C007D00A90DEEFAEFFB121568
:10537800C190120CE0F8A3E0F9E849603690120CED
:10538800E0F8A3E0F5838882A3A3E0F8A3E0F9E8B6
:105398004960207C007900EEFAEFFB90120CE0F8EF
:1053A800A3E0F5838882A3A3E0F8A3E0F5838882CD
:1053B800121D8A7404650C700F901BDBE064027088
:1053C80007EEFAEFFB1215C779007426121D327F1B
:1053D8000C021E5E74F7121D8CEAFEEBFF12079397
:1053E800E9706790129BE06401701B12158BE9F558
:1053F8000890129B7400F07C0A7D0079007A9C7BEF
:10540800121217058039750800E508C3940A502F51
:10541800A8087900749C28F582741239F583E06431
:10542800017018A908121591E9FAA8087900749C66
:1054380028F582741239F5837400F0050880CA795A
:1054480050121849E9F5081215797F01021E5E7499
:10545800F2121D8C74FA121D1CEAFEEBFF908F02EB
:10546800AC18AD197406121C2FEEFAEFFB120C43A0
:105478008A0C8B0D850C0A850D0BE50A450B70030C
:1054880002550B901BDBE064026078AC18AD19E59F
:105498000A2405FAE4350BFB850A82850B83A3A34E
:1054A800A3A3E0F912151FE9F508E508C3940A500B
:1054B80021A90812155BE9FC7509017809121FA3D7
:1054C8007D08A908EEFAEFFB1215CD7401121D3202
:1054D8008031901BDBE0700C7905EEFAEFFB1206C9
:1054E800A9E9801F901BDBE0640170177C007D0038
:1054F800850A82850B83A3A3A3A3E0F9EEFAEFFB49
:105508001215C17406121D327F06021E5E74F21255
:105518001D8C890BEAFEEBFF8C088D09750A0AE5DC
:105528000B600C1460091460441460640255BAEEF0
:10553800FAEFFB12156DE9F50AE50AC3940A5072F1
:10554800E5084509606C750C06750D00780C121F8E
:105558009FEEFCEFFDAA08AB091216ED7402121DAE
:10556800328A0C8B0D850C82850D838045EEFAEF0F
:10557800FB121567E9F50AE50AC3940A5034E508F1
:105588004509602EAA08AB09A90A121561E980220B
:10559800EEFAEFFB121573E9F50AE50AC3940A500F
:1055A80011E5084509600BAA08AB09A90A1215619B
:1055B800E9F8A90A7F06021E5E74F2121D8C8A0C95
:1055C8008B0DE9FF7E1574FF650C700474FF650D83
:1055D800702A750800E508C3940A5014EFFC7A0293
:1055E8007B00A90812153DE960027E00050880E5E8
:1055F800EF60627AB57B15120C738059AA0CAB0D5B
:10560800120C438A0A8B0B850A08850B09E50845A5
:105618000960407C007D00E5082405FAE43509FBB3
:10562800850882850983A3A3A3A3E0F912151FE9BE
:10563800F50AE50AC3940A500EEFFC7A027B00A92A
:105648000A12153DE97E00EF600BAA08AB09121596
:10565800B580027E14EEF97F06021E5E74EE121DFE
:105668008C8A0E8B0F8C0A8D0B7412121D68E0F554
:105678000CA3E0F50D75081574FF650E700474FF32
:10568800650F701E7E00EEC3940A5061AC0CAD0D20
:10569800AA0AAB0BEEF9121543E960037508000E70
:1056A80080E4AA0EAB0F120C438A108B11AE10AF18
:1056B80011EE4F60357C007D00EE2405FAE43FFBD7
:1056C8008E828F83A3A3A3A3E0F912151FE9F5091E
:1056D800E509C3940A5016AC0CAD0DAA0AAB0BA988
:1056E80009121543E97508008003750814A9087F95
:1056F8000A021E5E74F7121D8CEAFEEBFF90120C74
:10570800EEF0A3EFF09011F2E0FC7D007A267B002A
:10571800120613E9F5089011F2E0F91209677F0102
:10572800021E5E74F0121D8C74EC121D1C8A0C8B08
:105738000D850C82850D83A3A3E024FA7003025C17
:105748006324FD7003025AC11470030258211460C7
:1057580016147003025C4C24FE70030259C71470BF
:1057680003025B00025C76AE0CAF0D90120CE0F801
:10577800A3E0F9E849606690120CE0F8A3E0F5832D
:105788008882E0F8A3E0F9E8496052EE240CF5823B
:10579800E43FF583E0F5087808121FA3EE240BF523
:1057A80082E43FF583E0F98E828F83A3A3A3A3A3AA
:1057B800A3A3A3A3E0FCA3E0FDEE2403FAE43FFBCC
:1057C80090120CE0F8A3E0F5838882E0F8A3E0F5F6
:1057D800838882121D8A7401121D3280398E828F4D
:1057E80083A3A3A3A3A3A3A3A3A3121FB6901208E2
:1057F800121BF21206AF7402121D32E96018790109
:105808008E828F83A3A3A3A3A3A3A3A3A3E0FAA336
:10581800E0FB1206A9E9025C76AE0CAF0D75080034
:105828008E828F83A3E060030259498E828F83A3FF
:10583800A3A3A3A3E0A2E040030259499012A6E063
:10584800F8A3E0F9E84960030259497C0E7D007924
:1058580000AA18AB191217058A0A8B0BAA0AAB0BF8
:10586800EE240CF582E43FF583E0F8A3E0F9E8497B
:105878006036750A06750B00780A121F9FEE240C15
:10588800F582E43FF583E02410FCA3E03400FD74C6
:1058980002121D7A1216ED7402121D328A0A8B0B3F
:1058A800850A82850B83804F8E828F83A3A3A3E012
:1058B800FAA3E0FB120C438A0E8B0F850E0A850FA4
:1058C8000BE50A450B602D750E06750F00780E1254
:1058D8001F9FE50A2405FCE4350BFD7402121D7AAE
:1058E8001216ED7402121D328A0E8B0F850E8285F8
:1058F8000F838003025C768E828F83A3A3A3A3A366
:10590800E0A2E25004D2F08002C2F0A2F0E433F840
:105918007900740C121D68E048F0A3E049F0EEFC31
:10592800EFFDAA18AB19121555E970127A027B001F
:105938009011F2E0F9121741E97900025C787508D4
:105948001590120CE0F8A3E0F9E849606F90120C8A
:10595800E0F8A3E0F5838882A3A3E0F8A3E0F9E8E0
:105968004960598E828F83A3E0FC79018E828F83F0
:10597800A3A3A3E0FAA3E0FB90120CE0F8A3E0F5E0
:10598800838882A3A3E0F8A3E0F5838882121D8AA6
:10599800E5086028AC0879038E828F83A3A3A3E06F
:1059A800FAA3E0FB90120CE0F8A3E0F5838882A349
:1059B800A3E0F8A3E0F5838882121D8A025C76AE24
:1059C8000CAF0D8E828F83A3E064066003025A6DCC
:1059D8008E828F83A3A3A3E0FAA3E0FB120C438A71
:1059E8000A8B0B850A08850B09E50845096076903E
:1059F8001BE1E014600814602614603F80677C0097
:105A08007D00850882850983A3A3A3A3E0F98E827C
:105A18008F83A3A3A3E0FAA3E0FB1215C180467C01
:105A2800058E828F83A3A3A3E0FAA3E0FB850882F7
:105A3800850983E0F9120697E9802A7C007D0079C0
:105A4800007A097B04121507E9F50A7C058E828F16
:105A580083A3A3A3E0FAA3E0FB850882850983E07A
:105A6800F9120697E990120CE0F8A3E0F9E849600A
:105A78004590120CE0F8A3E0F5838882A3A3E0F830
:105A8800A3E0F9E849602F850C82850D83A3E0FC2B
:105A980079028E828F83A3A3A3E0FAA3E0FB90127E
:105AA8000CE0F8A3E0F5838882A3A3E0F8A3E0F56F
:105AB800838882121D8A025C76AE0CAF0D7C007D55
:105AC80000EE2404FAE43FFB8E828F83A3A3A3E0B5
:105AD800F912151FE9F508E508C3940A5017EE24D2
:105AE8000AFCE43FFD7A0475F006E508A42425F9CC
:105AF80012183DE9F8025C76AE0CAF0D901207E083
:105B08006019901BDEE0F98E828F83A3A3A3E0FACD
:105B1800A3E0FB1206A9E9F8025C76901BDBE070B3
