:020000040000FA
:060000000201070225E1E8
:03002B00022A01A5
:03003B00022A2670
:030043000229D9B6
:030053000226572B
:03007B00022A9ABC
:10008300022437E5C754F84401F5C779012200007B
:100093000080FB120086B900030200F1E4792178A5
:1000A30008B800028004F709D8FCE479297802B87B
:1000B30000028004F709D8FCE4900286785379198A
:1000C3008002F0A3D8FCD9FA7AD87B1A900137784A
:1000D300D779028015E493A3AD82AE838A828B83A2
:1000E300F0A3AA82AB838D828E83D8E9D9E7758288
:1000F3007A7583FF740212011975829175830074F6
:100103000012011975D00075812A751886751902B8
:10011300759F00020096C09FF59FE473D09F22D085
:1001230083D082C09FE493C0E0740193C0E0740263
:1001330093F59F2280818283848586870602F28ECF
:10014300010000CC8F02DA8F010000E01A02F28F67
:100153000300008E06C505D1050106FB05FF00005F
:10016300B4000028002800283075A000A000A000DB
:10017300A00000080008E001F000100010001000CB
:10018300100010001000500050005000100010002C
:10019300D0070000000000000F00010005003075CB
:1001A30007001000010081FF00000000FFFFFF397E
:1001B3000757073F077B07FF02020208025000A010
:1001C300000000E80302F28E010000CF8F02DA8FF5
:1001D3000100005C1B02DE8F010000E40602DA8FDF
:1001E3000100005D1B02E08F010000FA0602DA8FB6
:1001F3000100005E1B02F48F010000FC0602DA8F8F
:100203000100005F1B02E48F080000FD0602DA8F85
:10021300010000601B02E68F010000611BFF01006B
:10022300FF2002F28E010000D28F02DA8F0100005C
:10023300C51B02E88F000000000002DC8F030000F2
:100243002B071700D10ED10ED10ED10ED10ED10E28
:10025300D10ED10ED10ED10ED10ED10ED10E23114E
:1002630041111D11671279126112011F06FF0E0160
:10027300FFFF00051208000800020A000E09505291
:10028300494D4F56455F44554D4D5902010606FFF2
:100293000E01FFFF000E095052494D4F56455F4472
:1002A300554D4D5969136F137513811301000104E3
:1002B3000506090C0D0E14151617180202F28E010D
:1002C3000000D58F02DA8F0100005F1C02F08F015E
:1002D3000000891201E803057710020AFFFF0001FD
:1002E300307503020106000000000000000000005A
:1002F30000000000000000000000000000000000FB
:100303000000FFFF0600800CE803120122F2AA039B
:10031300120122B2AD03120122CAAE03120122045A
:10032300AF0312012225AF03120122D8AF0312013A
:1003330022B2B00312012299B103120122B6B10312
:10034300120122C6B103120122E7B10312012208EE
:10035300B2031201221DB2031201222EB2031201B3
:10036300225AB2031201229BB203120122DCB2030E
:10037300120122FCB2031201221DB3031201222B2C
:10038300B30312012245B303120122A7B3031201DF
:1003930022C0B3031201228DC501120122A6C80196
:1003A300120122B7C801120122D1C801120122DFB2
:1003B300C8011201225FC9011201227CC901120185
:1003C30022B3CA01120122F5CC011201224DCD0143
:1003D3001201226ACD011201221DCE011201223A1D
:1003E300CE0112012265CF0112012273CF01120146
:1003F3002297CF011201223DD001120122E3D00145
:10040300120122A1D101120122C2D101120122B291
:10041300D3011201221ED40112012282D40112013E
:100423002293D40112012226D501120122B2D50151
:1004330012012239D60112012244D6011201225E91
:10044300D60112012275D6011201228ED6011201A4
:100453002204D70112012255D701120122C7D70165
:100463001201224CD80112012292D801120122D882
:10047300D8011201223ED90112012293DA0112019D
:100483002279DB01120122A3DB01120122CADB0163
:100493001201222DDC0112012234DC01120122A0FF
:1004A300E904120122DACF041201221DD004120141
:1004B300223AD0041201222ED104120122B7C5041C
:1004C300120122CAC504120122FBC50412012235FE
:1004D300C6041201228EC604120122D5C6041201DB
:1004E300221DC7041201224CC7041201227BC70438
:1004F300120122B2C704120122F9C7041201221207
:10050300C80412012267C80412012280C804120120
:1005130022CEC80412012208C904120122C3D10346
:10052300120122C6D203120122FFD2031201222298
:10053300D30312012234D30312012272D303120113
:1005430022EED303120122B6D403120122D8D4031C
:100553001201226FD503120122C1D503120122F227
:10056300D503120122FFD50312012269D60312011A
:1005730022C0D603120122C3D603120122FCD603E2
:10058300120122FFD60312012209D7031201225DB1
:10059300D7031201229ED703120122D1D7031201DE
:1005A300220ED80312012210D903120122B4D90357
:1005B3001201221DDA031201225BDA03120122A1C6
:1005C300DA0312012237DB0312012282DB03120159
:1005D30022E6DB0312012270DC0312012229DD0370
:1005E3001201224BE003120122C8E103120122EBA4
:1005F300E103120122BCD204120122DCD204120153
:1006030022FDD30412012250D404120122FCB904A6
:1006130012012224BA0412012251BA0412012289BE
:10062300BA04120122E7BA0412012233BB041201F5
:10063300229ABB04120122DABB0412012217BC0462
:1006430012012245BC04120122EFBC04120122F95B
:10065300BC0412012206BD0412012239BD04120199
:100663002245BD041201225DBD0412012267BD04AF
:1006730012012292EA04120122A0EA04120122B812
:10068300EA04120122CFEA04120122EDA4021201AC
:100693002297A502120122AAA60212012226A7026C
:1006A30012012244A80212012280A8021201221B75
:1006B300A902120122FFA902120122C2AA021201F7
:1006C300223AAB02120122C8AC0212012239AD0256
:1006D300120122F3AD02120122E5AE02120122251C
:1006E300AF02120122D9AF021201220BB002120192
:1006F3002201B20212012248B20212012266B202A0
:10070300120122CCB2021201229BB3021201225F18
:10071300B4021201227EB60212012288B60212012D
:1007230022008004120122EA80041201229581042E
:10073300120122E681041201229682041201220789
:100743008304120122EC8304120122208404120187
:1007530022198504120122568504120122328604CD
:100763001201227186041201228D8604120122379E
:10077300DF04120122BBDF04120122E6DF041201AF
:100783002200E104120122F5BD041201220BBE0472
:1007930012012229BE041201223ABF04120122448B
:1007A300BF041201226FC00412012266C1041201A8
:1007B30022D3C104120122DDC104120122A48D043B
:1007C300120122D48E041201220B8F04120122552E
:1007D3008F041201221891041201220080021201D7
:1007E300228C8002120122F08102120122FC81027A
:1007F300120122378202120122A68202120122AFC3
:100803008302120122B884021201227F850212019F
:1008130022DC8602120122FA8602120122178702C3
:10082300120122C4870212012241880212012269A5
:100833008802120122338B02120122388B02120129
:1008430022518D021201229F8D021201220F8E026C
:100853001201224D8E02120122298F02120122E976
:100863008F021201223590021201223890021201E6
:10087300227C9002120122C49002120122039102EF
:10088300120122259102120122599102120122BC66
:10089300910212012239A20412012247A204120179
:1008A300229AA204120122B9A204120122FEA20476
:1008B30012012242A404120122DDA4041201222106
:1008C300A5041201224BA504120122BAA5041201A8
:1008D3002200A60412012277A60412012228A704EB
:1008E300120122E02A00120122F02A0012012291B1
:1008F3002B00120122ED2B00120122AA2C0012015F
:1009030022C62D00120122F82D00120122272E00EB
:10091300120122D42F001201224B3200120122BBFA
:100923003400120122AD3500120122A63600120155
:1009330022AD3800120122A13B00120122D03C005B
:10094300120122D43E00120122E43F00120122735D
:100953004100120122644200120122B2420012013C
:100963002221430012012245430012012296430033
:10097300120122374800120122384900120122993C
:100983004900120122C449001201228A4A001201BD
:10099300223AA70412012244A70412012289A704C0
:1009A3001201229DA7041201222DA804120122661E
:1009B300A804120122A1A804120122CAA804120148
:1009C3002218A9041201222DA90412012242A9040A
:1009D3001201226AA9041201227FA904120122939F
:1009E300A904120122A7A904120122BCA90412011D
:1009F30022F6A9041201221AAA0412012246AA0409
:100A0300120122D0AA0412012205AB0412012230E2
:100A1300AB041201225BAB041201229EAB04120150
:100A230022C8AB04120122F3AB041201228CE804A6
:100A3300120122D0E102120122B3E2021201222E9C
:100A4300E30212012269E302120122BAE402120153
:100A53002243E5021201225BE702120122EDE902C1
:100A63001201229FEA02120122ABEB021201221EA3
:100A7300ED0212012277ED02120122E79204120124
:100A8300222A9304120122AE9304120122819404B8
:100A930012012258970412012207D804120122B42A
:100AA300D804120122C1D90412012200DA0412016E
:100AB300225ADA041201222FE10412012292E104E4
:100AC3001201222FE20412012264E2041201229491
:100AD300E204120122B5E204120122F0E20412013F
:100AE3002210E3041201221BAC04120122A7AC045E
:100AF30012012266AD041201227EAE041201229875
:100B0300B00412012220EE0212012245EE0212016C
:100B13002212EF02120122E6EF0212012253F00227
:100B2300120122A9F00212012245F10212012279D7
:100B3300F20212012254F302120122B3F302120150
:100B4300223FF402120122ADF40212012239F5020E
:100B53001201223CF50212012286F502120122F84B
:100B6300F5021201228AF6021201222BF702120168
:100B7300224BF70212012293F702120122DCF70241
:100B8300120122F8F7021201221EF8021201229822
:100B9300F802120122A6F80212012235F90212010B
:100BA300229EF90212012266B504120122EBB5045A
:100BB3001201222DB60412012211B7041201227E62
:100BC300B704120122C2B70412012206B8041201AB
:100BD3002233B8041201225BB80412012293B80431
:100BE300120122D1B804120122F8B80412012272B0
:100BF300B904120122BCB9041201226EAC01120124
:100C03002267AE0112012253B101120122A7B101E1
:100C1300120122D2B101120122ACB201120122EB64
:100C2300B20112012232B30112012245B3011201B2
:100C33002286B301120122B3B30112012201B401CE
:100C430012012240B4011201226BB401120122BE2F
:100C5300B4011201224DB5011201222BB801120178
:100C63002246BA0112012284BA01120122F9BB0100
:100C730012012256BC011201223ABE011201229C2A
:100C8300BE0112012224BF0112012273BF0112010E
:100C930022B9BF0112012297C10112012245C301EA
:100CA30012012297C301120122D5C30112012206A8
:100CB300C40112012228C40112012258C5011201E4
:100CC300226AC501120122C8BE0312012247BF03D3
:100CD30012012240C50312012246C603120122B9A2
:100CE300C70312012250C803120122F78F01120118
:100CF300224090011201226D90011201229F900166
:100D0300120122AB9001120122B79001120122CEEF
:100D13009001120122A991011201220792011201ED
:100D2300223C92011201226D9301120122BA930116
:100D33001201220094011201226C9401120122106B
:100D43009501120122C69501120122259601120175
:100D530022969601120122F496011201222698018D
:100D63001201228E9901120122589A011201226561
:100D73009A01120122A79A01120122B79A011201C4
:100D830022DB9A01120122DE9A01120122CA9B017F
:100D9300120122669C01120122FF9C01120122967C
:100DA3009D01120122C39D01120122219E01120104
:100DB30022689E01120122B89E01120122089F019E
:100DC3001201227A9F0112012223A001120122CED5
:100DD300A0011201226DA101120122EBA101120156
:100DE3002232A20112012296A201120122C5A201FE
:100DF3001201225CA30112012269A501120122AD95
:100E0300A501120122F8A5011201227EA6011201F9
:100E13002208A70112012221A801120122A7A80179
:100E2300120122E4A801120122F9A8011201226C85
:100E3300A901120122B1A901120122BAAA011201C8
:100E4300226BAB01120122C9AB0112012225AC01B5
:100E53001201223EAC011201227AC803120122CEF2
:100E6300C803120122DAC803120122A4C903120122
:100E730022D1C903120122FFC9031201226BCA0343
:100E8300120122A1CA03120122DACA03120122F2B9
:100E9300CA0312012247CB0312012260CB031201C2
:100EA30022A5CB03120122B8CB03120122D2CB031A
:100EB300120122E8CB0312012206CD0312012231D3
:100EC300CE031201221BCF031201220AD003120107
:100ED30022F1FF011201220A98041201228D9B04C0
:100EE300120122DA9C0412012257D5021201222791
:100EF300D8021201222DD802120122BDDA021201F8
:100F03002220DD02120122CFB00412012266B104B5
:100F130012012224B2041201224EB2041201222829
:100F2300B4041201222DB5041201224DDC01120179
:100F3300227FDC011201229CE801120122EDE9016A
:100F4300120122F6EA0112012275EC011201224E6E
:100F5300ED011201229DED01120122B7ED011201F3
:100F630022F9ED0112012204EE011201224DEE01DC
:100F730012012256EE0112012202EF01120122DBBD
:100F8300EF0112012222F0011201228AF001120163
:100F930022CCF001120122FAF00112012235F101F3
:100FA3001201229492021201221796021201221DAB
:100FB3009602120122729C02120122BCA0021201AB
:100FC30022A2A40212012270C904120122E6C9045A
:100FD300120122FCC9041201228CCA04120122C983
:100FE300CA0412012203CB041201223DCB041201D5
:100FF30022B0CB04120122F1CB04120122FACB045A
:1010030012012206CC0412012225CC041201224F24
:10101300CC0412012264CC04120122A7CC041201D5
:1010230022EE86041201220187041201221B870487
:101033001201224887041201228E8704120122C161
:101043008704120122FF870412012264880412011B
:1010530022798804120122848804120122918804CF
:10106300120122A88804120122B68804120122C5A3
:101073008804120122DA8804120122EF8804120183
:1010830022FA880412012206890412012213890418
:1010930012012226890412012231890412012256E7
:1010A3008904120122FA89041201220A8A04120114
:1010B300221F8A04120122398A04120122568A0449
:1010C300120122738A041201227E8A041201222A47
:1010D3008B041201220B8C04120122308C041201A6
:1010E300223B8C04120122508C04120122648C04D2
:1010F300120122C58C04120122CB8C04120122D1CD
:101103008C04120122D78C04120122EF8C041201E9
:1011130022228D04120122879603120122A996032B
:101123001201227197031201222B9A031201224109
:101133009B03120122629C031201223C9D031201B4
:1011430022EB9D031201226EF20112012205F3012B
:101153001201229DF3011201228DF401120122C416
:10116300F401120122D7F40112012245F501120103
:1011730022E0F60112012207F701120122A9F70169
:10118300120122DEF701120122EFF7011201226898
:10119300F80112012289F801120122A1F8011201BA
:1011A30022F9F90112012202FC0112012252FE016D
:1011B30012012255FF01120122A4FF01120122C0D4
:1011C300C602120122BDC702120122A8C8021201DF
:1011D30022B2C802120122BCC802120122DEC802D6
:1011E300120122EAC8021201223CCA021201226B36
:1011F300CA021201229BCB02120122DDCB02120191
:101203002209CD02120122DFCD0212012231CE02C8
:1012130012012290CE02120122C7CE021201220233
:10122300CF021201229DD202120122B6D202120172
:101233002238D30212012246D3021201229BD30287
:10124300120122A9D30212012216D402120122880A
:10125300D402120122CED402120122778B0312018F
:1012630022998B03120122838D03120122289103F9
:101273001201226B92031201224593031201221ED3
:10128300E30412012243E304120122B4E304120132
:10129300220EE30312012217E30312012220E303C8
:1012A30012012251E40312012270E603120122A665
:1012B300E603120122E0E60312012216E7031201FC
:1012C3002250E70312012284E703120122B0E7034D
:1012D300120122F9E70312012233E8031201227BF0
:1012E300E803120122D1E80312012206E9031201E5
:1012F3002261E9031201229BE903120122ECE903B3
:1013030012012222EA031201225CEA031201228A59
:10131300EA03120122ADEA031201220AEC041201CC
:101323002236EC0412012291EC041201229BEC04FC
:10133300120122ABEC04120122DFA003120122E608
:10134300A20312012200A3031201223AA4031201F1
:10135300228DA403120122B9A4031201222CA50396
:1013630012012256A50312012277A50312012207B7
:10137300A80312012247A803120122DFA8031201C6
:101383002225A9031201226BA9031201226EA903CC
:10139300120122DCAA0312012292B602120122F3E5
:1013A300B602120122BBB70212012268B80212016F
:1013B3002281B802120122ECB80212012203BA02FE
:1013C3001201221CBA0212012235BA02120122555D
:1013D300BA0212012210C60212012221C602120110
:1013E300225CC602120122259D04120122A29D0441
:1013F300120122E89D04120122819E04120122CDD2
:101403009E04120122DE9E04120122FD9E0412019B
:1014130022169F041201227B9F041201228C9F0437
:10142300120122B9A004120122D9A004120122F24E
:10143300A00412012214A1041201222BA1041201FF
:101443002246A1041201227EA104120122D3A10487
:10145300120122E4A104120122D4E404120122FBAA
:10146300E40412012236E504120122E6F903120113
:1014730022FBF90312012224FB031201229BFD0329
:1014830012012219FF0312012246FF03120122F661
:101493004A00120122284E00120122245000120198
:1014A300229F50001201225D5100120122095200B5
:1014B300120122AC52001201224453001201227382
:1014C3005300120122CA58001201225C5900120172
:1014D30022985A00120122025B00120122B65B001D
:1014E3001201226C5E00120122A65E00120122107C
:1014F3005F001201226D5F00120122CA5F00120118
:101503002227600012012212610012012258610099
:10151300120122A36100120122C661001201220DF1
:101523006300120122216300120122906400120160
:1015330022CF64001201220F6500120122626500AE
:10154300120122836500120122C16500120122E704
:101553006700120122286800120122C368001201E9
:1015630022356900120122766A001201225DD50438
:1015730012012203D604120122F0D6041201222FF3
:10158300D70412012299D70412012261EF04120138
:10159300225FEB041201226FEB0412012280EB04A1
:1015A300120122FCEB04120122D5CC041201227D8C
:1015B300CD04120122BFCF041201220080031201C5
:1015C300228680031201229881031201225C820386
:1015D300120122CE82031201224A860312012276CD
:1015E3008603120122D58603120122A38703120167
:1015F3002200880312012234880312012275880312
:10160300120122408A03120122548A031201226228
:101613008A03120122758A031201229F8A0312018F
:1016230022DD8A031201221B8B03120122298B0361
:101633001201224F8B03120122B5EC041201222E58
:10164300ED041201224DED0412012222EF041201D6
:101653002237EF041201223BEB0312012250EB036A
:10166300120122ACEB0312012217EC031201225FD9
:10167300EC03120122D1EC03120122FAEC03120152
:101683002208ED031201226AED03120122A8ED03E1
:10169300120122C3ED031201225EEE03120122079F
:1016A300EF031201228AEF03120122C3EF03120197
:1016B300224EF003120122A5F00312012203F103CB
:1016C30012012215F1031201223BF10312012244FC
:1016D300F10312012295F2031201225DED041201BE
:1016E300223DDD04120122A4DD0412012261DE0485
:1016F300120122DFDE04120122E7C1041201221AC1
:10170300C2041201224CC30412012290C304120129
:10171300226CC4041201221EE604120122FCE60418
:10172300120122A5DA04120122EADA04120122309C
:10173300DB04120122F9DC0412012200EE0412017F
:10174300221BEE041201222BEE04120122E0B40349
:10175300120122BCB50312012203B6031201224077
:10176300B603120122AEB60312012208B703120117
:101773002278B70312012248B80312012237B903B2
:10178300120122AEB9031201224ABB03120122D76E
:10179300BB031201224ABC03120122C6BC0312017D
:1017A30022DDBC0312012202BE031201225CBE032E
:1017B300120122C1F902120122E1F902120122E708
:1017C300FA0212012233FB0212012253FB0212011D
:1017D30022A6FB0212012213FC0212012259FC026F
:1017E300120122BDFC0212012269FF02120122AA88
:1017F3006A00120122D76F00120122DA720012016D
:10180300220373001201221A730012012243730090
:10181300120122F57300120122DE75001201222942
:101823007700120122427700120122797C00120113
:1018330022B27C00120122F67C00120122077E00F4
:10184300120122C9F20312012206F3031201221D1F
:10185300F30312012226F903120122A7F90312014D
:1018630022C77E00120122F27E00120122317F0084
:10187300120122427F001201225B7F00120122B279
:101883007F0012012258E7041201229DE70412018E
:101893002290EE04120122DCEE04120122CFFF0299
:1018A30012012280EF04E066701008A3E066700A5C
:1018B30008A3E066700408A3E06622C3E79608095C
:1018C300E7960809E7960809E79622C3E09608A376
:1018D300E09608A3E09608A3E09622C008C3E0962A
:1018E300F50808A3E096420808A3E096420808A377
:1018F300E09645087001D3D00822080808EAC0E042
:10190300EBC0E086F0E7A4FA180986F0E7A42AFA08
:10191300180986F0E7A42AFA180986F0E7A42AFA38
:101923001986F0E7A4FBE5F02AFA190886F0E7A484
:101933002BFBE5F03AFA190886F0E7A42BFBE5F058
:101943003AFA18180986F0E7A4C5F02BFBE43AFA33
:101953001908E7C5F0C6A426F6E5F03BFBE43AFA1E
:101963001886F0E7A4F6E5F00826F6E43B08F6E46B
:101973003A08F6D0E0FBD0E0FA22E4CFC0E0E4CEB0
:10198300C0E0E4CDC0E0E4CCC0E075F020E626F68C
:1019930008E633F608E633F608E633F6181818ECCB
:1019A30033FCED33FDEE33FEEF33FFC3EC9709ED6C
:1019B3009709EE9709EF97191919400FFFEC97FC58
:1019C30009ED97FD09EE97FE191906D5F0BFECF75F
:1019D30009EDF709EEF709EFF7191919D0E0FCD073
:1019E300E0FDD0E0FED0E0FF226016080808C6C381
:1019F30013C618C613C618C613C618C613C6D5E031
:101A0300EA227009080808226016181818C6C3339A
:101A1300C608C633C608C633C608C633C6D5E0EA09
:101A230022E627F60809E637F60809E637F6080935
:101A3300E637F622E026F608A3E036F608A3E036FA
:101A4300F608A3E036F622E026F008A3E036F00815
:101A5300A3E036F008A3E036F022C3E697F60809C0
:101A6300E697F60809E697F60809E697F622C3E033
:101A730096F008A3E096F008A3E096F008A3E0969A
:101A8300F022E056F608A3E056F608A3E056F6085F
:101A9300A3E056F622E056F008A3E056F008A3E0D0
:101AA30056F008A3E056F022E647F60809E647F6A3
:101AB3000809E647F60809E647F622E0F608A3E038
:101AC300F608A3E0F608A3E0F622E6F008A3E6F0A2
:101AD30008A3E6F008A3E6F022E0FAA3E0FBA3E004
:101AE300FCA3E0FD22EAF0A3EBF0A3ECF0A3EDF0FE
:101AF30022E0F8A3E0F9A3E0FAA3E0FB22E8F0A3D5
:101B0300E9F0A3EAF0A3EBF022CAC0E0E6F0A308F1
:101B1300DAFAD0E0FA22CAC0E0E0A3C582CCC582DB
:101B2300C583CDC583F0A3C582CCC582C583CDC58E
:101B330083DAE6D0E0CA22C3E498F8E499F9121BE9
:101B43007B8026C3E49AFAE49BFBE920E7E9121BB6
:101B53007BE498F8E499F922C3E498F8E499F9123C
:101B63001B7BE498F8E499F9C3E49AFAE49BFB221B
:101B7300EB20E7CFE920E7E0B90010BB0008E88AD3
:101B8300F084F8AAF022E4FBC8FA22EB70227B105F
:101B9300C833C8C933C9335007C39AC3DBF28006BD
:101BA3009A50012ADBEAC833F4C8C933F4C9FA22CC
:101BB30075F008E4C833C8C933C933C99AC99B50FF
:101BC30004C92AC93BD5F0ECFBC833F4C8E4C9FA0D
:101BD30022600D08C6A2E713C618C613C6D5E0F3E4
:101BE30022600C08C6C313C618C613C6D5E0F42278
:101BF300700422600D18C6C333C608C633C6D5E0C9
:101C0300F41822251810AF08F518400C1519800890
:101C1300F51840021519D2AF2200C0D0251810AF15
:101C230008F518500C05198008F51850020519D24B
:101C3300AFD0D0222518F58210AF08F518400C1547
:101C4300198008F51840021519D2AF85198322258A
:101C530018F582E43519F583222518F8E43519F9C6
:101C6300222518FAE43519FB222518FCE43519FD61
:101C730022E4732518C582C0E0E51934FFC583C08B
:101C8300E0E518C3958224F810AF0885831985828F
:101C9300188008858319858218D2AFCEF0A3E5207A
:101CA300F0A37808E608F0A3DEFAEFF0A3E58124B9
:101CB300FAF8E608F0A3E608F0A3E608F0A308089C
:101CC300E608F0A3E608F0A315811581D0E0FED065
:101CD300E0F8158115811581E8C0E0EEC0E022250A
:101CE30018C582C0E0E51934FFC583C0E0E518C319
:101CF300958224F910AF0885831985821880088599
:101D03008319858218D2AFCEF0A3E520F0A378081B
:101D1300E608F0A3DEFAEFF0A3E58124FBF8E6087A
:101D2300F0A3E608F0A30808E608F0A3E608F0A38A
:101D330015811581D0E0FED0E0F815811581E8C04A
:101D4300E0EEC0E022851983851882E0A3FEE0A3BC
:101D5300F5207808E0A3F608DFFAE0A3FFE0A3C0CC
:101D6300E0E0A3C0E0E0A3C0E0E0A3C0E0E0A3C0E4
:101D7300E010AF088582188583198008858218854D
:101D83008319D2AFD083D08202011F8519838518AE
:101D930082E0A3FEE0A3F5207808E0A3F608DFFACB
:101DA300E0A3FFE0A3C0E0E0A3C0E0E0A3C0E0E065
:101DB300A3C0E010AF088582188583198008858247
:101DC30018858319D2AFD083D08222C0D02518C5FD
:101DD30082C0E0E51934FFC583C0E0E518C39582EE
:101DE30024F310AF08858319858218800885831929
:101DF300858218D2AFC8F0A3E9F0A3EAF0A3EBF011
:101E0300A37908E709F0A3D8FAECF0A3EDF0A3EE69
:101E1300F0A3EFF0A3D0E0F0A3D0E0F0A3D0E0F084
:101E2300A3E520F0A3E5F0F0A322851983851882AA
:101E3300E0C0E0A3E0F9A3E0FAA3E0FBA37808E0A5
:101E4300F608A3DFFAE0FCA3E0FDA3E0FEA3E0FFB6
:101E5300A3E0C0E0A3E0C0E0A3E0F5D0A3E0F52059
:101E6300A3E0A3F5F010AF088583198582188008D5
:101E7300858319858218D2AFD082D083D0E0F8D081
:101E8300E03274048006740280027401C0E0F4043A
:101E9300121C37D0E0121B0C2274048004740280DD
:101EA30000CCC0E0EDC0E0E518C39CCCAD195001F7
:101EB3001D10AF068C188D1980068C188D19D2AFA2
:101EC300121B19D0E0FDD0E0FC22D083D082E9C000
:101ED300E0E493A3C386F0C5F095F0F908E493A377
:101EE30086F0C5F095F0700BE493A3C3994005E920
:101EF300048002A3E475F002A42582F582E5F0359F
:101F030083F583D0E0F9E493A3C0E0E493C0E02237
:101F1300D083D082CCC0E0E493A36006121F3D14AB
:101F230070FAE493A36006121F5C1470FAD0E0FC0D
:101F3300E493A3C0E0E493C0E022C0E0E493A3D31E
:101F43009C5010E493A3C39C400AD0E0D0E0D0E0BF
:101F5300021F30A3A3A3D0E022C0E0E493A36C70DC
:101F630009D0E0D0E0D0E0021F30A3A3D0E022D01C
:101F730083D082ECC0E0EDC0E0E493A3FCE493A340
:101F8300FDED4C600D121FBEEC24FFFCED34FFFD94
:101F930080EFE493A3FCE493A3FDED4C600D121FCB
:101FA300FDEC24FFFCED34FFFD80EFD0E0FDD0E03D
:101FB300FCE493A3C0E0E493C0E022C0E0C3E49355
:101FC30096087401939618400FE49366700808749A
:101FD3000193661870007019A3A3C3E49396087461
:101FE30001939618A3A3400DD0E0D0E0D0E0021FE8
:101FF300AEA3A3A3A3A3A3D0E022C0E0C0F088F0C4
:10200300E4936670080874019366187000A8F0A33F
:10201300A3700BD0F0D0E0D0E0D0E0021FAEA3A3BA
:10202300D0F0D0E02274F6121CE2EAFEEBFF8C083B
:102033008D09EE2434F8E43FF9E8FCE9FD12215B55
:10204300E0FAEE2437F582E43FF583E0F88508F003
:10205300A4C885F00A8509F0A4250AF9EA28F8E45A
:1020630039F97A257B00121B7BEA8C828D83F0FA87
:10207300131313541FF8EE28F8E43FF9E8245DF531
:1020830082E439F583E0C0E074075AF8D0E0B80081
:10209300028004C313D8FCA2E05003EA8020EE249C
:1020A30036F582E43FF583E0F5F0EA84A8F0EE2804
:1020B300F8E43FF9E82438F582E439F583E0F97F61
:1020C30003021D8E74F5121CE2EAFEEBFFEE2434CC
:1020D300F582E43FF583E0C0E012215BD0E0F08EAF
:1020E300828F83A3A3A3A3A3E0FAA3E0FB8E828F33
:1020F30083A3A3A3A3A3A3A3E0FCA3E0FDECC39A40
:10210300F50AED9BF50BEE247FF508E43FF5098511
:102113000882F583E06401702AEE2480F582E43FAF
:10212300F583121EA01221657402121C1CE96013B0
:102133007CEF7D0AEEFAEFFB120DED85088285092F
:1021430083E4F0AC0AAD0BEEFAEFFB122028E9F9B9
:102153001229CB7F04021D8EEE2435F582E43FF570
:102163008322C082C083851882851983E0F8A3E0A7
:10217300F9C3EA9CEB9D5010C3EC98ED99401BC347
:10218300EA98EB995014800EC3EA98EB994007C381
:10219300EC98ED994004790180027900D083D082D4
:1021A30022EAC39CFAEB9DFB2274ED121CE290071A
:1021B3009BE064086005E06407702C9061C8E060F0
:1021C300269007C9E0F874FF68601CE875F00CA45A
:1021D300C8AAF02AF974CB28FE740739FF8E828FC0
:1021E30083A3A3A3E07005790002234EEE2468F5D0
:1021F3000EE43FF50F906060E0850E82850F83F05B
:1022030075108975110B750800750900E5D914F56A
:102213000AE5D95403F50B601FEE2482F50CE43F65
:10222300F50D7403650B6059E50A6017EE2467F535
:1022330082E43FF583E0700B793DEEFAEFFB120E7B
:102243001D80A4900B84E064016023850C82850DBE
:1022530083E060047A0480027A00E50AC39AFA955F
:10226300E0FB120C0D8A088B09EA4509700612106F
:10227300F90221EA850C82850D83E070048A108BB4
:10228300117A008014E5D9C0E0EAF8E51028F58258
:10229300E43511F583D0E0F00AEAC3950A40E685F8
:1022A3000C82850D83E0602874FC250AF50A7810FA
:1022B300121E89AC0AA90BEEFAEFFB120ECB7402C5
:1022C300121C1CE9700AAA08AB091216E702223B8A
:1022D3007403650B6054850A0C750D00780C121E8F
:1022E30089AC10AD11AA08AB09120E8F7402121C2F
:1022F3001C850E82850F83E0F87480687005750C69
:102303007F8002880CE50CF50D780D121E8D780B7D
:10231300121E8DA90AAC08AD099007C9E0FA7B002B
:10232300120A2D7402121C1C801C90079BE0640887
:10233300AC10AD117009EEFAEFFB120EFB8007EE45
:10234300FAEFFB120FB512110579017F0C021D8EF6
:1023530074F3121CE274FC121C06EAFEEBFF8909FB
:10236300A2AFE433F508C2AFEE2463F50AE43FF508
:102373000B8010AA0AAB0B120E471216E7900AF64F
:10238300E004F0850A82850B83E0F8A3E0F9E849CD
:10239300602DE82402FAE439FBEA2402F50CE43B5D
:1023A300F50D780C121E898A828B83E0FCA3E0F979
:1023B300EEFAEFFB120E3B7402121C1CE960B490A0
:1023C3000AF6E0604D900AF7E0F8900AF6E0C39849
:1023D300500C74026509703A900AF8E060348E82FA
:1023E3008F83A3A3A3A3E0851882851983122425D1
:1023F3007402121C52E8122425900AF5E028F074A6
:1024030002121C6CAA18AB197901120A8D900AF6F4
:10241300E4F0E508A2E092AF7404121C1C7F0602EC
:102423001D8EF0A3E4F0900AF6E0F82200852187E0
:102433008522C622C0E074EB121DCEA2AFE433F5B1
:1024430008C2AF759B00906182E0A2E05030E59135
:10245300A2E0502A7591FE7401652170211225CAEC
:1024630012100F1225B8121E9C1227757404121C29
:102473001CE964017005790112105D1221AC9061B1
:1024830082E0A2E5505DE591A2E550577591DF909A
:10249300079BE064076005E06408702F1225CA7487
:1024A300016521703E12100F1225B8121E9C1227CF
:1024B300757404121C1CE964017005790112105D26
:1024C3007901EEFAEFFB1223538018E0640D7013C9
:1024D3009007BDE004F064287002E4F07A00E0F9AC
:1024E30012110B906182E0A2E6400302258DE59173
:1024F300A2E6400302258D7591BF90079BE064051A
:102503007008120FF71210038003120FFD752100DC
:1025130012107BE990079CF0790012105D120D0FE9
:102523007A017B0090079AE0F91216B1907803E0E4
:1025330064427056900B88E014F0704EC2AF1225BF
:102543004400782AD0E0F618D0E0F6E59F5407F867
:102553007005750DFF8003750D7FC4C0E07829E613
:10256300F50A08E6550DF50B740B780A121BE4D037
:10257300E0250AF8906270E0A2E740F8E8C33390E0
:102583006272F0906270E0D2E0F0906181E0A2E3C9
:102593005009E5E9A2E3500375E9F7A3E0A2E75088
:1025A30009E591A2E7500375917FE508A2E092AF98
:1025B3007F08021E2D8E828F83E0F8A3E0C82416C5
:1025C300F582E438F583229007C9E0F875F00CA48E
:1025D300C8AAF02AF974CB28FE740739FF22C0E099
:1025E300C0D0C082C083906183E0A2E05009E5BF00
:1025F300A2E0500375BFFEE0A2E15009E5BFA2E1EE
:10260300500375BFFDE0A2E25009E5BFA2E250030B
:1026130075BFFBE0A2E35009E5BFA2E3500375BF1A
:10262300F7E0A2E45009E5BFA2E4500375BFEFE071
:10263300A2E55009E5BFA2E5500375BFDFE0A2E6BE
:102643005009E5BFA2E6500375BFBFD083D082D047
:10265300D0D0E032C0E074F2121DCEE5A7A2E45060
:102663000FE5A1A2E4500953A7EF75A1EF1226AB22
:10267300E5A7A2E5500CE5A1A2E5500653A7DF7537
:10268300A1DFE5A7A2E15009E5A1A2E1500375A1ED
:10269300FDE5A7A2E2500CE5A1A2E2500653A7FB79
:1026A30075A1FB7F01021E2D74F8121CE275210136
:1026B30090079BE0640670077A007B00120FDFA28D
:1026C300AFE433FED2AF9007A1E0640170187A2023
:1026D3007B0090079AE0F91217D77A207B009007C6
:1026E3009AE0F91216B7906182E0D2E6F0900B857A
:1026F300E0602185C62280169007A0E0640170087F
:10270300E5C654F84405F5C653BEFC1224307401E3
:10271300652160E4EEA2E092AF7F01021D8E00000E
:10272300008E238F24858228858327851882851927
:1027330083E0CEA3E0CF852882852783EBC9EAC84F
:10274300EDCBECCA75F010C3E833C8E933C9EA33FB
:10275300CAEB33CBC3EA9EF526EB9FF525B35004B2
:10276300AB25AA26EC33CCED33CDD5F0DAAE23AFCF
:10277300242274F1121CE28A088B098C0A8D0B90B7
:102783008F487808121A85740F121C52780C121A8B
:10279300BE908F48780C121A857808790C1218BEEF
:1027A300908F8850107808790C121A5D78081218E7
:1027B300DE4014800E780C7908121A5D780C12181A
:1027C300DE50047901800279007F08021D8E74EDCA
:1027D300121CE28A088B098C0A8D0B908F487808AB
:1027E300121A857413121C52780C121ABE908F4859
:1027F300780C121A85780C79081218BE40117808E3
:10280300790C121A5DAA08AB09AC0AAD0B802275CC
:1028130010007511007512007513017810790C12F0
:102823001A5D78107908121A24AA10AB11AC12ADF4
:10283300137F0C021D8E908F487808121ABE8A826D
:102843008B837808121A987F04021D8E74F5121C6C
:10285300E28C828D837808121ABE8A828B83780871
:10286300121A711228A3C3E098F0A3E099122895D5
:10287300401E908FA87808121ABE8A828B8378082C
:10288300121A4A8E828F83E02420F0A3E0344EF0A4
:1028930080A4F08E828F83C3E09420A3E0944E2221
:1028A300EA2404F8E43BF9E8FEE9FF8C828D83A374
:1028B300A3A3A3E0F8A3E0F98E828F832274F51219
:1028C3001CE2E9FE900B11E0FAA3E0FBEE29F8E429
:1028D30033F974E228F582748E39F583E02AF5081A
:1028E300A3E03BF5097808121E89908FB8121ADC11
:1028F3001227247402121C1C8A088B098C0A8D0B64
:10290300741078081219ECAA08AB097F04021D8E13
:1029130074F1121CE28A0C8B0D8C0E8D0F74111244
:102923001C52121EA07411121C52E02401F508A3BC
:10293300E03400F509E4F50AF50B780C7908121870
:10294300FD908F947808121ABE780C79081218FD3E
:10295300AA0CAB0DAC0EAD0F1227247402121C1C73
:102963008B09EA450960047A0180027A00EC2AFCAB
:10297300E43DFD7413121C52E0F8A3E0F9E8FEE90C
:10298300FFECF8EDF97A717B02121B7B8808890949
:10299300E4F50AF50B8E828F837808121ACDECF8D2
:1029A300EDF97A717B02121B7B8A088B0974057817
:1029B30008121BF38E828F83A3A3A3A3E508F0A3BE
:1029C300E509F07F08021D8EC082C083E990600094
:1029D300F0D083D08222C0E074F2121DCEA2AFE405
:1029E30033FED2AFC2C0E5D1A2E4500675D10F12B7
:1029F3001633EEF8EEA2E092AF7F01021E2DC0E087
:102A0300C0D0E8C0E0E9C0E0A2AFE433F8D2AFC27F
:102A1300C7E8F9E8A2E092AFD0E0F9D0E0F8D0D06F
:102A2300D0E032C0E0C0D0E8C0E0E9C0E0EAC0E0F6
:102A3300C082C083A2AFE433FAD2AF9014F8E0F8B7
:102A43009014F9E068700B539AFB9014FA7401F038
:102A5300802CC2E99014F8E0F87401289014F8F07F
:102A63007900747828F582741439F583E0F5C19000
:102A730014F8E0C3948040069014F87400F0EAF868
:102A8300EAA2E092AFD083D082D0E0FAD0E0F9D0CE
:102A9300E0F8D0D0D0E032C0E0C0D0E8C0E0E9C078
:102AA300E0C082C083A2AFE433F8D2AF758A00C21C
:102AB300EB9015087401F0E8F9E8A2E092AFD2AF09
:102AC300D083D082D0E0F9D0E0F8D0D0D0E032C2C9
:102AD300AF02000022FFFFFFFFFFFFFFFFC082C026
:102AE30083E9901BC4F0D083D08202011F74F612D5
:102AF3001C76E990070DF090076DE0F50875090065
:102B030074027808121BF3AA08AB0912172F900757
:102B13000E1234A390070E123890606F90076DE089
:102B230075F003A4FAABF012172F90072B1234A3FE
:102B330090072B123890700B90070E123861121702
:102B430035804890072B1247F57AFF7BFF12156DEE
:102B53007A0080198A0875090074027808121BF339
:102B630012429D74FF122CA3E4F0A3F00A90076DA8
:102B7300E0F8EAC39840DD79051208FB90070DE001
:102B8300F91207E77A857B09120BAD02434074F40F
:102B9300121C768A088B09EB5480604790070DE07E
:102BA300F91216998A0A8B0BAE0AAF0BEE4F602A05
:102BB3008E828F83E064B0701A12090DE960148E5F
:102BC300828F83A3A3A3A3E0F9EE2405FAE43FFBDA
:102BD3001208DDEEFAEFFB121687AA08E5096480F6
:102BE300FB80047A007B00022DF374F2121C7674CE
:102BF300FB121C06EAFEEBFFEE4F60457403121C4A
:102C030052EEF0A3EFF0851882851983ECF0A3ED63
:102C1300F07402121C52E9F0AA18AB191207E1E989
:102C2300F50870757413121C52E0F50AA3E0F50B56
:102C3300E50A450B60638E828F8312322CEE4F7050
:102C43000575080280537A067B0012172F8A0C8BB6
:102C53000DA80CA90DE8497005750813803B8882FF
:102C63008983E4122CA3EEF0A3EF122DBFE50AF043
:102C7300A3E50BF0900711122DB89007116017E030
:102C8300FCA3E08003EAFCEBFD8C828D83122DB85C
:102C930070F38C828D83123EB8A9087405024A75BD
:102CA300F0A31247D7A32274F2121C768908890C69
:102CB300750D007403780C121BF3850C0A850D0B3C
:102CC300900710F090070E123CC3122DB6602E121F
:102CD30017357900801D890C750D007402780C126C
:102CE3001BF390070E12415C8882F583A3A3E4F0E3
:102CF300A3F00990076DE0F8E9C39840D990076DF8
:102D0300E0FA850AF0A4CAA8F0850BF0A428FB1208
:102D1300172F8A0C8B0DAE0CAF0DEE4F7003022DE7
:102D2300AC90076DE0FC850AF0A4CCA8F0850BF00D
:102D3300A428FD79001216757C0080318D0C750D69
:102D4300007403780C121BF38A828B83122DB188D3
:102D5300828983E4F0122DBEA3A3F0A3F00DEDC38B
:102D6300950840D8EE250AFEEF350BFF0C90076D52
:102D7300E0F8ECC39850288C0C750D007402780CA5
:102D8300121BF390070E122DB1E82402500109FA29
:102D9300E9FB8A828B83EEF0A3EFF07D0080BFE531
:102DA30008900710F0790080027913024A781241E3
:102DB30060F922A3A3123865EA4B22A31247D7A3D3
:102DC300A3A32274F4121C767900EAA2E0501F75C3
:102DD300080275098F7808121E8979107C047D001A
:102DE3007AC67B1B1208F57402121C1CE9F98000D9
:102DF3007F04021D48C082C083900711123890607F
:102E03001C88828983A3A3E06A7003A3E06B888292
:102E1300898370E8A3A3A3A312386180047A007B9B
:102E230000022AE974F2121C7674FD121C06EAFEF3
:102E3300EBFF851882851983E4F0A3F07402121C5A
:102E4300527401F012388D7014120AE112172F9088
:102E530007141234A312388D7003022FB91235A34D
:102E6300EE2404F50AE43FF50B850A82F583E0249A
:102E7300FE603C24FC607424FE607E24FE7003022A
:102E83002F0924FE7003022F1624FE7003022F2342
:102E930024FE7003022F3024FE7003022F3D24FC16
:102EA3007003022F5E24FE7003022F76022FB212EC
:102EB3000AE1900716EAF0A3EB122FC51204C9E941
:102EC3006003022FB2900716121EA08E828F83A377
:102ED300A3A3A3A31247F58508828509831238614A
:102EE3001208C57402121C1C022FB2AC18AD19EEE5
:102EF300FAEFFB120913022F81AC18AD19EEFAEFAA
:102F0300FB1209198078AC18AD19EEFAEFFB120920
:102F13001F806BAC18AD19EEFAEFFB120925805E2A
:102F2300AC18AD19EEFAEFFB12092B8051AC18ADBA
:102F330019EEFAEFFB12093180447402121C5C880B
:102F43000C890D780C121E897402121C6CEEFAEFB8
:102F5300FB1209377402121C1C8023AC18AD19EE46
:102F6300FAEFFB12093DE9F870167402121C52E4E1
:102F7300F0803CAC18AD19EEFAEFFB120943E9F807
:102F8300E8602C8E828F83A3E064146022850A821A
:102F9300850B83E0900716F0851882851983123814
:102FA300619007171234A3E8A3122FC51204C3EECE
:102FB300FAEFFB12089B7402121C52E0F97403022D
:102FC3004A75F07C167D078508828509831238656A
:102FD3002274E8121C7674FA121C067404121C5232
:102FE300ECF0A3EDF08A128B13EA2405F50EE43519
:102FF30013F50FEA2402F510E43513F51185108259
:10300300F5831238611205B98A0A8B0B7508007CA7
:10301300037D0079007A167B07121675E50E2402EC
:10302300F516E4350FF5177402121C5C880C890D34
:10303300780C121E89850E82850F83A3A3A3A3E0B8
:10304300F50C750D00780C121E89E50E2405F50CA0
:10305300E4350FF50D780C121E89851682851783CA
:10306300123B681207FF7406121C1C8A0C8B0DE5B9
:103073000C450D70030231F5802085188285198374
:10308300E088828983F00508851882851983A3E087
:10309300C0E0123236D0E0F00508E50A24FBFAE579
:1030A3000B34FFFBC3E5089AE49B40030231F57E32
:1030B300007F00851282851383A3A3A3A3E0F509F0
:1030C3007809121E8DE4F514F5157814121E89750E
:1030D30014137515077814121E89900714121EA075
:1030E3007409121C52121EA0E50A24F9F9AC0CADA6
:1030F3000D85108285118312386112096D740912CE
:103103001C1CE96003023196850E82850F83A3A3FD
:10311300A3A3A3A3A3E0F8900713E0687075E0F5F9
:10312300148E157814121E891247F2850E82850FAC
:1031330083A3A3A3A3A3A3A3A312386112166F743B
:1031430002121C1CE9604C900717123890703BE484
:10315300F5147814121E897CFF7DFF790785108290
:103163008511831238611208D77402121C1C12389D
:10317300967017850E82850F8312498F7404121C73
:1031830052124250123B99023229850C82850D83DB
:1031930012322CA818A919881489157814121E89BB
:1031A3007404121C52121EA08516828517831234D2
:1031B3009912080B7404121C1C8A0C8B0DEE4F70B1
:1031C30003023072123236EE123241123B4FEF12CB
:1031D3003241F8A3E03400F9E50C450D60030230F9
:1031E3007D8882898374FFF0050812323674FFF0FC
:1031F3000508E508601A1313543F1234A91204D5C5
:10320300E960099007171238611216E779008016F2
:10321300850E82850F8312498F7404121C52124249
:1032230050123EB8790A023B22A3A3A3A3E0FEA354
:10323300E0FF22A808900717E028123B4F22F00571
:103243000808900717E0282274E8121C7674FA1213
:103253001C067402121C521234A37404121C52EC86
:10326300F0A3EDF07402121C52E02405123B38E087
:10327300F50CA3E0F50D7402121C52E02402F510C4
:10328300A3E03400F511851082F58312386112052D
:10329300B9750800750900EA24FCFEEB34FFFF80D2
:1032A30008050CE50C7002050DA808C3EE98EF9411
:1032B300005003023455A818A919880E890F780EF7
:1032C300121E89851482851583A3A3A3A31247F92C
:1032D300121E89E5142405F50EE43515F50F780E55
:1032E300121E898514828515831234971207FF7481
:1032F30006121C1C8A0E8B0FEA450F70030234550D
:10330300EA2404F516E4350FF517851682F583E0F4
:10331300F50CA3E0F50D8518828519831247F58A0C
:10332300828B83A3A3A3E0F98510828511831238CE
:10333300611207EDE9F50960030234557402121CAA
:1033430052123B5FF5097809121E8DE4F512F5134D
:103353007812121E897512137513077812121E89BB
:10336300900714121EA07407121C52121EA0EEF92D
:10337300AC0EAD0F85108285118312386112096D71
:103383007409121C1CE9F5096003023455E5087041
:103393003FE4F50EF50F780E121E897CFF7DFF7951
:1033A300098510828511831238611208D7740212BD
:1033B3001C1C123B85700D7404121C5212348C7940
:1033C30011023489900713E02402900717F0801448
:1033D300900717E0FA900713E079002402500109DF
:1033E3006A497072A808900713E0FAE82AFAE434ED
:1033F30000FBEE9AEF9B405A851682851783E0C047
:10340300E090071812323BD0E0F00508851682855C
:103413001783A3E0C0E00890071812323BD0E0F016
:1034230005089007131247F9121E891247F2A808DC
:10343300123B2C12165D7402121C1C900713E0251C
:1034430008F50874FF650C700474FF650D600302D2
:1034530032A4E508601F900717E0F5F0E508841231
:1034630034A91204DBE960099007181238611216B7
:10347300E779008011E509700375090A7404121CC9
:103483005212348CA909023B22123CC7E50CF0A36B
:10349300E50DF022A3A3124A84AA0CAB0D22A3A329
:1034A300EAF0A3EBF022900716F07C167D07851057
:1034B300828511831238652274EC121C7674FC1217
:1034C3001C06123FC87402121C6C12385B120805EA
:1034D3008A0C8B0DEA450D70030235931235A3A8B0
:1034E30018A919881089117810121E897CFF7DFF95
:1034F300790B8508828509831238611208D7740213
:10350300121C1C123699700C850A82850B83123BA0
:10351300960235A08E828F83A3A3A3A3E0F512782E
:1035230012121E8DE4F512F5137812121E8975120C
:10353300167513077812121E897810121E897409E2
:10354300121C52121EA07409121C52E0F9AC0CADED
:103553000D85088285098312386112096D74091279
:103563001C1CE9FE70157C167D078508828509837E
:103573001238611204E1E97009802074166E70023A
:103583007E009007171238611216E7EE7004800B65
:103593007E01850A82850B83123EB5EEF9023ECA8F
:1035A300EE2402F508E43FF5092274EC121C76744C
:1035B300FC121C06EAFEEBFF8C0E8D0FEE2405F5C4
:1035C30008E43FF5097402121C6C8508828509839F
:1035D3001238611208058A0C8B0DEA450D7003023F
:1035E3003689EE2402F50AE43FF50BA818A91988D9
:1035F3001089117810121E897CFF7DFF790D123816
:103603005B1208D77402121C1C123699700B8508C2
:1036130082850983123B96807A8E828F83A3A3A32C
:10362300A3E0F5127812121E8D850882850983A303
:10363300A3121EA07512167513077812121E89782D
:1036430010121E897409121C52121EA07409121C36
:1036530052E0F912385712096D7409121C1CE9FE65
:10366300700F7C167D0712385B1204E7E97009803E
:103673002074166E70027E009007171238611216BE
:10368300E7EE7004800B7E01850882850983123E74
:10369300B5EEF9023ECA1238A0F510A3E0F511EA1F
:1036A30045112274E8121C7674FE121C068A168BCE
:1036B300178C148D15EA2405F50CE43517F50DEA7E
:1036C3002402F50EE43517F50F850E82F5831238C3
:1036D300611205B98A088B09750B007C037D00799B
:1036E300007A167B07121675750A00E50814F510A3
:1036F3000424FFF508E50934FFF509805490071603
:10370300E0FA900713E0F8EA28F8E43400F9E50852
:1037130098E50999500D900716E0F8E510C39890C5
:103723000713F0E0F5127513007812121E89124781
:10373300F2900717E02AFAA3E03400FB12165D7437
:1037430002121C1C900713E0F8900716E028F005FE
:103753000A850C82850D83A3A312416C40030238B2
:103763003C900716E0C39508E49509400302383CF2
:10377300AE0AEE2EFEE433FF12387BAC18AD1912FD
:10378300480DE439FB1208058A128B13AC12AD13F2
:10379300EC4D701B750B0112386B123EB990071775
:1037A300122DB860031216E7A90B7402023B24859D
:1037B3001682851783A3A3A3A3E0F50B780B121E30
:1037C3008DE4F512F5137812121E89751213751311
:1037D300077812121E89900714121EA07407121C78
:1037E30052121EA0A910850E82850F831238611212
:1037F300096D7409121C1CE9F50B709B90071712D5
:1038030038906003023700E4F512F5137812121EA4
:10381300897CFF7DFF790F850E82850F83123861C6
:103823001208D77402121C1C123896600302370068
:1038330012386B123B9A0237AD7C167D07850E82D8
:10384300850F831238611204EDE960030237A07912
:10385300000237ADAC0CAD0D850A82850B8312389F
:103863006522E0FAA3E0FB2212387BE0FAA3E0F939
:10387300EA85148285158322850C82850D83E02ECB
:10388300F8A3E03FF98882898322900714124993B1
:10389300E849221238A0F8A3E0F9E8492290071773
:1038A300EAF0A3EBF0900717E02274E8121C767499
:1038B300FA121C067404121C521234A38C168D17B0
:1038C3007404121C52E02405F50EA3E03400F50F36
:1038D3007404121C52E02402123B381238611205A0
:1038E300B98A0A8B0B7F007E00A818A9198808895A
:1038F300097808121E89850E82850F83A3A3A3A3CB
:10390300E0F5088E097808121E89E50E2405F508EE
:10391300E4350FF5097808121E89850E82850F8319
:10392300A3A3123B681207FF7406121C1C8A0C8B9C
:103933000D8029123B59F00F123B59F00F900713DA
:10394300123EA4121E891247F2EFF8123B2C1216F4
:103953005D7402121C1C900713E02FFFE50C450D4C
:1039630070030239E8851882851983123FDAA3A30D
:10397300A3E0F98514828515831238611207EDE9F6
:10398300FEE50C2404F510E4350DF511EE705074CA
:1039930004121C52123B5FF5087808121E8DE4F5E1
:1039A30008F5097808121E89750813750907780840
:1039B300121E89900714121EA07407121C52121EA5
:1039C300A0E50A24FAF9AC0CAD0D851482851583A4
:1039D30012386112096D7409121C1CE9FE60391258
:1039E3003B75123EB8EF7003023B0F900717E0F5EB
:1039F300F0EF84900716F07C167D078514828515F9
:103A0300831238611204F3E96009900718123861D0
:103A13001216E77900023B228F08EF703BE4F512A0
:103A2300F5137812121E897CFF7DFF7911851482AC
:103A33008515831238611208D77402121C1C123BBD
:103A4300857009123B75123B99023B22900713E0E4
:103A53002404900717F08035900713E0F8900717B8
:103A6300E0FAE82404FCE43400FDEC6A4D60030250
:103A730039EEE50A24FAFAE50B34FFFBE50828F8EA
:103A8300E43400F9EA98EB9950030239EE85108289
:103A9300851183E0C0E0900718E02FF8A3E034001D
:103AA3008882F583D0E0F00F851082851183A3E02F
:103AB300C0E0123B46D0E0F00F7402121C5C880891
:103AC30089097808121E897402121C52121EA085DD
:103AD3000E82850F8312349712080B7404121C1C78
:103AE3008A0C8B0DEA450D70030239367402121CE1
:103AF30052E0C0E0123B46D0E0F00F7402121C52B9
:103B0300A3E0C0E0123B46D0E002393EEE70027EF5
:103B13000A850E82850F83123B7B123EB8EEF97441
:103B230006121C1C7F10021D48900718E028FAA3F8
:103B3300E03400FB22F514A3E03400F5158514826C
:103B4300F58322123B4A22900718E02FFAA3E034B0
:103B5300008A82F58322123B4A74FF22123CC7A3D8
:103B6300A3A3A3E022124A84850E82850F83123811
:103B730065228510828511831249938516828517E4
:103B83008322900718EAF0A3EBF0900718124993E9
:103B9300E84922123EBEE8F0A3E9F079112274EA63
:103BA300121C7674FE121C068A088B098C128D1364
:103BB300EA2405FEE43509FFAC18AD198E828F8324
:103BC3001238611208058A0C8B0DEE2406F50EE4FB
:103BD3003FF50FEA450D7003023C99E5082402F511
:103BE3000AE43509F50B8A828B83A3A3A3E0A2E53C
:103BF30050288518828519831238611209618A1049
:103C03008B11EA451160207912123857851082858D
:103C13001183121C74E9F50C707F850E82850F8366
:103C2300E0600979528011750C0E806D85088285DC
:103C33000983A3A3A3A3E0F9E4F508F5097808121F
:103C43001E898E828F83A3A3E0F5087808121E894C
:103C53008E828F83A3A3A3121EA08E828F8312470B
:103C6300F512385B1209737406121C1CE9F50C700B
:103C730011850E82850F83E0702D12385B1204F9D3
:103C830080257416650C7011750C007418121C5283
:103C9300123CC3E48010750C0112498B8512828596
:103CA3001383E8F0A3E9F0850E82850F83E06004B7
:103CB30079008002A90C7402121C1C7F0E021D489D
:103CC300123CC722E0F8A3E0F58388822274EC1249
:103CD3001C7674F7121C068A0A8B0B8C108D11EA62
:103CE3002405FEE4350BFF750C00AC18AD198E826C
:103CF3008F831238611208058A088B09EA45097017
:103D030003023E8FE50A2402F50A5002050B8A825C
:103D13008B83A3A3A3E0A2E5502F85188285198383
:103D23001238611209618A0C8B0DEA450D604F79D7
:103D330012AC08AD0912385B850C82850D83121C09
:103D430074E9F50C6003023E92850A82850B83E0D9
:103D5300F508A3E0F509AA08FB120955EA4B701907
:103D63007AFF7BFF120955EA4B7003023E858A8274
:103D73008B83E508F0A3E509F07508008008750C4E
:103D83000E023E920508900710E0F8E508C398403C
:103D930003023E8585080E750F007403780E121B0F
:103DA300F38A828B83A3A3E0250EF8A3E0350F12D9
:103DB300425970D08E828F83123EAD1234A38E820D
:103DC3008F83A3A3123EAD1234A1EE2404F508E4BD
:103DD3003FF509850882F583E088828983A3A3A33D
:103DE300A3F0A3E4F0EE2405F50EE43FF50F850EF2
:103DF30082F583123EADA3A3A3A31234A1751207C8
:103E03007513007812121E89EEFCEFFD7404121C68
:103E13006412165D7402121C1CE4F5127812121E51
:103E230089850882850983E0FC7D00791712385B58
:103E33001208D77402121C1C7407121C521234A3EA
:103E43007407121C52E0FA4B603D85088285098392
:103E5300123EA4121E89850E82850F831247F51226
:103E6300165D7402121C1C7402121C6C12385B1255
:103E730004FFE960267407121C521238611216E718
:103E83008019750C098008750C118003750C0112DB
:103E9300498B851082851183123EB8A90C74098061
:103EA30028E0F508750900780822123865888289A8
:103EB3008322123EBEE8F0A3E9F022E0F8A3E0F982
:103EC300850E82850F83227404121C1C7F0C021D35
:103ED3004874EC121C76123FC8751000EE2402F5EC
:103EE3000CE43FF50D850C82F583123861120955F8
:103EF3008A088B09EA45097003023FAC850A82856B
:103F03000B83E064016003023FA1AC08AD09AA0A78
:103F1300AB0B120949E9606E850882850983123269
:103F23002EEE2406F50AE43FF50B8E828F83A3A3BE
:103F3300121EA08E828F83A3A3A3A3121EA0850AA1
:103F430082850B83121EA079188E828F83123FDA2B
:103F53001238611209737406121C1CE9F87416688E
:103F6300700B850A82850B83E4F0A38014E860124A
:103F73008E828F83123861850E82850F83EAF0A3C8
:103F8300EBF088108018780E121E89AC08AD09EE8C
:103F9300FAEFFB12094F7402121C1CE9F510AA0870
:103FA300AB0912095BE510700E850C82850D831237
:103FB30038611205058009741665107003751000C9
:103FC300A910023ECFEAFEEBFF8C0E8D0FEE240507
:103FD300F50AE43FF50B22124A84850C82850D8392
:103FE3002274EA121C767508007509007E007F00B2
:103FF300750A00EC2402F510E43DF5118035EC65FB
:10400300087003ED6509600302409988828983A3E0
:10401300A3E06A7003A3E06B707C88828983A3A307
:10402300A3A312498FEE28FEEF39FFEA28FAEB39F2
:10403300FB050A124169503A850A0C750D00740399
:10404300780C121BF385108285118312415C124296
:1040530059601FE508450970A58C088D0988828978
:104063008312322C88828983A3A3E02EFAA3E03F34
:1040730080BEE50AC39402500302415775080075D8
:104083000900EE4F6010EEFAEFFB1216E18A0E8B79
:104093000FEA450F70057900024159750B00024183
:1040A3002C850B0C750D007403780C121BF3851013
:1040B30082851183E0250CF50CA3E0350DF50DE5A4
:1040C3000C2406F514E4350DF515851482F58312D9
:1040D300425E6042E50C2404F512E4350DF51385C8
:1040E3001282F583121EA0E50E2508FAE50F3509A5
:1040F300FB12165D7402121C1C851282851383E069
:104103002508F508A3E03509F5098514828515838B
:104113001238611216E7E50B600D7C087D0079000B
:10412300AA0CAB0D121675050BE50BC3950A5003CC
:104133000240A485108285118312498F8882898366
:10414300A3A3A3A3A3A3E50EF0A3E50F122DBFEE34
:10415300F0A3EFF07901023CBE12416022E0250C8E
:10416300F8A3E0350D22900710E0F8E50AC3982282
:1041730074F0121C768A0E8B0F8C0A8D0B750D0052
:10418300750C0080507916EE2406F508E43FF50916
:104193008E828F83A3A3121EA08E828F83A3A3A3D9
:1041A300A3121EA0850882850983121EA0850E8294
:1041B300850F83A3A31238611209737406121C1CA2
:1041C300E9F50D7416650D706C850882850983E425
:1041D300F0A3F0050C900710E0F8E50CC3985066C7
:1041E300AA0C8A0875090074037808121BF3850A60
:1041F30082850B83A3A31242A8E8FEE9FF8E828F78
:104203008312425E6040EA2401F508E43400F509B4
:10421300900710E065087002E509601488828983BD
:10422300A3A3A3A3A3A3A3A312389060030241886B
:10423300791802418AE9609B12498B7410121C524F
:10424300124250123EB8A90D7F08021D48E0FAA39E
:10425300E0F5838A8222F988828983124A84EC4DAD
:104263002274F6121C767C0080010C90076DE0F836
:10427300ECC398501E8C0875090074027808121B51
:10428300F312429DE06A7003A3E06B70DDE8FAE984
:10429300FB80047A007B0002434090070E1242A881
:1042A3008882898322E02508F8A3E03509F922747E
:1042B300F2121C768A088B09750A0080278E828F7A
:1042C30083A3A3A3A3122DB660031216E77C087D74
:1042D300007900EEFAEFFB1216758E828F83E4F0FD
:1042E300A3F0050A1241695027850A0C750D007465
:1042F30003780C121BF3850882850983A3A3E025A9
:104303000CFEA3E0350DFF8E828F8312389070ADC3
:1043130085088285098374FFF0A3F0024A7874F656
:10432300121C761209078A828B83E5824583700605
:104333007A007B008007A3A3A3A31238617F020244
:104343001D4874F4121C7689088C828D83E0640204
:10435300703C12492EFEA3E0F9EEF8740268700374
:104363007429697029750A02750B00780A121E896F
:104373007410121C52121EA07410121C52121EA092
:10438300A9081215737406121C1CE9F9800279013D
:10439300022DF374E8121C7674FB121C06E98518CF
:1043A30082851983F08A168B17ECFEEDFF751000DA
:1043B3008E828F83A3A3A3E0A2E4502D741D121C4D
:1043C300521238611209618A828B83E582458370B8
:1043D300030247CD790AEEFCEFFDAA16AB17121CB8
:1043E30074E9F51060030247D0741F121C52E0F504
:1043F30008A3E0F5097421121C52E0F50AA3E0F5C5
:104403000B7423121C52E0F50EA3E0F50F8E828F7E
:1044130083E06402600302476EA312498F8508821A
:10442300850983A3858212858313EE2406F50CE4A4
:104433003FF50D8882898312480DF514E439F5158B
:104443007814121F7201000028012870440700022B
:104453002835450328A3440029644601298F4602D1
:1044630029304603296446042908476E47E50E456B
:104473000F6003024769850C82850D8312498FE81B
:10448300FAE9FB8A828B83E0850A82850B831248D3
:1044930018121E898A828B83A3E0FCA3E00246F2F2
:1044A300E50E450F6003024769850A82850B837415
:1044B30001F0124802850882850983F07C007D00A3
:1044C3008E828F83A3A3A3A3E02401FAA3E0340085
:1044D300FB120805EA4B60408A828B83E02402F8D2
:1044E300850A82850B83E028F0EA2404F8E43BF98B
:1044F30088828983E08512828513831248261248B5
:1045030018121E898A828B83A31247F5E5082403B8
:10451300FAE43509FB0246F7850A82850B83E0241A
:1045230004F07C047D007900AA12AB131216750205
:1045330047D0E50E450F6003024769124802FEA308
:10454300E0FF850A82850B837404F0EE850882857B
:104553000983F0EF851282851383F07403121C6CB8
:10456300EEFAEFFB1208058A0C8B0DEA450D70037A
:104573000246138A828B83A3A312322C7401121C6A
:104583005C880E890F780E121E897405121C521254
:104593001EA07CFF7DFF12080B7404121C1C8B0FE2
:1045A300EA450F7033850C82850D831247F9121E7D
:1045B30089850C82850D83A3121EA07C027D007A5F
:1045C300D87B8F1205A77404121C1CE9700A7401AE
:1045D300121C5274FFF0A3F08E828F83E06402708A
:1045E30039750C02750D00780C121E898E828F832B
:1045F300A31247F5E5082404FAE43509FB12165D16
:104603007402121C1C850A82850B83E02402800934
:104613007401121C52EEF0A3EFF07401121C52123B
:1046230047E77401121C521247DE024763E50E4549
:104633000F6003024769850C82850D83124A7DAAA8
:1046430016AB17121579850A82850B837402F085E0
:104653000882850983EAF0851282851383EB02477A
:1046630066E50E450F6003024769124802F8A3E0AE
:10467300F9850A82850B837402F0E885088285092F
:1046830083F0E9851282851383024766850C828550
:104693000D83123861121657EAFAF8C3950EE495A2
:1046A3000F405CE8650E450F70047A008021851881
:1046B30082851983E0FCE50E2CFCE4350FFDC3EC89
:1046C30098ED94005003E08005E50ECAC39AFAEA18
:1046D300850A82850B83F08A0A750B00780A121EFD
:1046E30089850C82850D83E0250EFCA3E0350FFD43
:1046F300AA08AB0912165D7402121C1C0247D0757E
:1047030010070247D0E50E450F705B850C82850DBF
:104713008312498F850A82850B837407F088828907
:10472300831247DF1247D7E0851282851383F0E8AF
:104733002402FAE439FB8A828B831247E78A828B4D
:10474300831247DEA3A3122DBE1247ECF0E8240523
:10475300F8500109888289831247ECA3124826A3E3
:10476300A3A3A3F0806775100B8062741D121C5203
:104773001238611209078A828B83E5824583604A76
:1047830012498F880C890DE8450D603E7425121C73
:1047930052E0F5107810121E8D780E121E89780AD9
:1047A300121E897808121E897407121C52E0F9EE52
:1047B300FCEFFDAA16AB17850C82850D83121C74C2
:1047C3007407121C1CE9F510800375100EA91074F0
:1047D30005023B24F088828983A322A3E085088213
:1047E3008509832212482DF02212482DA3A322907B
:1047F3000714124A8422E0F50E750F00780E228505
:104803000C82850D83123CC7E022E0FAA3E0F8E4B2
:10481300C8F9EA2822F08A828B83E0F50A750B0037
:10482300780A221247D712482D22E085088285098B
:1048330083A3A32274EE121C7674FE121C068A084C
:104843008B09ECFEEDFF890AAC18AD19EEFAEFFB0C
:104853001208058A0C8B0DEA450D700302491F856A
:1048630018828519831238611209078A828B83E5BE
:10487300824583700302491AA3A312498F880E89C4
:104883000FE8450F700302491A7414121C52E0F525
:1048930010A3E0F511E50AF50B780B121E8D7419C0
:1048A300121C52121EA07810121E89741B121C5265
:1048B300E0F9AC0CAD0DAA08AB09850E82850F8318
:1048C300121C747405121C1CE9F50B705274FE65FE
:1048D3000A604C850C82850D83E0640270411249A5
:1048E3002EFAA3E0F9EAF874026870037429697078
:1048F3002E85108285118312480DF50CE439F50DD0
:10490300780C121E89EEFCEFFDAA08AB0912098B85
:104913007402121C1C8008750B0E8003750B01A911
:104923000B7402121C1C7F0A021D48A312499388B0
:10493300828983E02274F6121C7674FE121C0674BC
:104943000C121C5212498FE8851882851983F07462
:1049530001121C52E9F0E4F508F5097808121E89E2
:104963007508027808121E897404121C5C88088971
:10497300097808121E8979FE1209737406121C1C29
:104983007402121C1C0243408E828F8312499322AD
:10499300E0F8A3E0F92274F7121C76EAFEEBFF8934
:1049A3000890072B1247F5121579EA5402600BA9F8
:1049B30008EEFAEFFB1207F9800279017F01021D6D
:1049C3004874F2121C7674FE121C06EAFEEBFF8991
:1049D3000A7401650A60147402650A6003024A736B
:1049E3007901120BCBE96003024A73EEFAEFFB1273
:1049F3000955EA4B600312095BA818A919880889AD
:104A0300097808121E897508027509007808121EB4
:104A1300897508DC75098F7808121E897CFF7DFF74
:104A23007A017B001207FF7406121C1C803885086C
:104A330082850983A3A3A3A3A3A3124A7DEEFAEF5E
:104A4300FB12156DE4F50CF50D780C121E8974023A
:104A5300121C52121EA07CFF7DFFAA08AB0912088C
:104A63000B7404121C1C8A088B09E508450970BEE7
:104A73007402121C1C7F06021D48123CC7124A8492
:104A830022E0FCA3E0FD2274F4121C768A088B0951
:104A9300ECFEEDFF901BC4E0F4604B7A097B00123F
:104AA3001681EA4B60408A828B8374B1F0A3E412CF
:104AB3004AECF08A828B83A3A3E508F0A3E50912ED
:104AC3004AECA3EEF0A3EFF0740C121C5212498FC0
:104AD3008A828B83A3A3A3A3A3A3A3123EB8901B91
:104AE300C4E0F912168D022DF3F08A828B83A3A3FF
:104AF300A3A32274EE121C7674FA121C068A0A8B84
:104B03000BE9FF8C088D097E00850A0C850B0D7857
:104B13000C121ECD000410F44D3E4B614B804BA391
:104B23004BC64BE94B1A4C3D4C544C844C334D56BD
:104B33004D794DA74DF44DD24DAD4C74016F7019A5
:104B4300850882850983E0C39403500D8508828517
:104B53000983E0901C78F080027E18024E1C7402D8
:104B63006F7015850882850983E0F8A3E0F9901C2E
:104B730079E8F0A3E9F080027E18024E1C74016FFD
:104B83007019850882850983E0C39402500D850856
:104B930082850983E0901292F080027E18024E1CF7
:104BA30074016F7019850882850983E0C3940550E9
:104BB3000D850882850983E0901293F080027E18A8
:104BC300024E1C74016F7019850882850983E0C346
:104BD3009402500D850882850983E0901294F08039
:104BE300027E18024E1C74106F7027750C10750D21
:104BF30000780C121E89AC08AD097A957B12121647
:104C03005D7402121C1C8A0C8B0D850C82850D832E
:104C130080027E18024E1C74016F7019850882850C
:104C23000983E0C39402500D850882850983E090CF
:104C330012A5F080027E18024E1C74016F700D8560
:104C43000882850983E0901C7CF080027E18024E66
:104C53001C74046F7026908FB8780C121ABE8508E6
:104C630082850983780C1218CE5011850882850934
:104C730083121AF49012A7121B0080027E18024EB0
:104C83001CEF7021120799E97013121513E9F50D42
:104C930079501217ADE9F50C121501800A90133AF9
:104CA3007401F080027E18024E1C74076F707C75CD
:104CB3000E06750F00780E121E89850882850983FA
:104CC300A3AC82AD837402121C64121663740212C5
:104CD3001C1C8A108B1185100E85110F7C007D0022
:104CE300AA18AB19850882850983E0F91214A7E98C
:104CF300F50CE50CC3940A502E120799E97015A917
:104D03000C121519E9F50E79501217ADE9F50D12CC
:104D130015018019A80C7900743B28F582741339A6
:104D2300F5837401F080067E0280027E18024E1C19
:104D330074016F7019850882850983E0C39402505A
:104D43000D850882850983E09012A6F080027E1803
:104D5300024E1C74016F7019850882850983E0C3B4
:104D6300940A500D850882850983E0901C7BF080AE
:104D7300027E18024E1C74016F7025850882850916
:104D830083E0C394074019850882850983E0C394AF
:104D930011500D850882850983E0901C7DF0807990
:104DA3007E18807574016F7022901339E0F50C85BD
:104DB3000882850983E0901339F0E50C705B90134A
:104DC30039E064017053121501804E7E18804A74D5
:104DD300016F7019850882850983E0C39404500D1F
:104DE300850882850983E0901C7EF0802C7E1880E4
:104DF30028C3E50A9427E50B9400501B74026F70D7
:104E030016850882850983E0FCA3E0FDAA0AAB0BA3
:104E130012060DE9FE80027E02EEF97406121C1CD6
:104E23007F0A021D4874EC121C7674DA121C068980
:104E33000D8A128B13ECFEEDFF743A121C52E0F54F
:104E43000C908F26AC18AD197406121B19AC18AD53
:104E530019AA12AB13A90D1214A7E9F508E508C3A3
:104E6300940A4003024FA6A9081214E3E9F5099036
:104E73001C78E064027004740180027400F50A78FF
:104E83000A121E8DAD0CAC09A908EEFAEFFB121540
:104E9300557401121C1C7C147D0079007412121CC1
:104EA300641216758A0E8B0F850E0A850F0B74120A
:104EB300121C6C7A1075F006E508A42424F9121765
:104EC300A7E9703E7C1079FF7412121C641216D588
:104ED300E9702F7422121C52AC82AD837A0475F0F0
:104EE30006E508A42425F91217A7E9F50A74121296
:104EF3001C6CE509A2E0E433F9EEFAEFFB12069726
:104F0300E9F87406121C6C7A0C74702508F91217F0
:104F1300A7E970797406121C641214D7750E00E5A4
:104F23000EC394045067A80E7900E875F003A4C873
:104F3300AAF075F000A42AFA75F003E9A42AF9741B
:104F430006121C52E58228F50AE58339F50B850A1A
:104F530082850B83E0F8A3E0F9E849602C850A8297
:104F6300850B83A3A3E0F5107511007810121E8939
:104F7300850A82850B83E0FCA3E0FDEEFAEFFB12CA
:104F830009797402121C1CE9F8050E8092E509A246
:104F9300E1506D901291E0F9EEFAEFFB12097FE90F
:104FA300F8805D7408650C7057901C78E06402709B
:104FB3004F7C007D00A90DEEFAEFFB12154990120C
:104FC300ABE0F8A3E0F9E84960369012ABE0F8A350
:104FD300E0F5838882A3A3E0F8A3E0F9E849602021
:104FE3007C007900EEFAEFFB9012ABE0F8A3E0F55A
:104FF300838882A3A3E0F8A3E0F5838882121C745C
:105003007404650C700F901C78E064027007EEFA6C
:10501300EFFB12154F79007426121C1C7F0C021D26
:105023004874F7121C76EAFEEBFF120799E97067E2
:1050330090133AE06401701B121513E9F5089013FD
:105043003A7400F07C0A7D0079007A3B7B131216D8
:10505300758039750800E508C3940A502FA80879AC
:1050630000743B28F582741339F583E064017018EA
:10507300A908121519E9FAA8087900743B28F582E2
:10508300741339F5837400F0050880CA7950121738
:10509300ADE9F5081215017F01021D4874F2121CD7
:1050A3007674FA121C06EAFEEBFF908F14AC18AD6F
:1050B300197406121B19EEFAEFFB120BBF8A0C8B45
:1050C3000D850C0A850D0BE50A450B700302515340
:1050D300901C78E064026078AC18AD19E50A2405E9
:1050E300FAE4350BFB850A82850B83A3A3A3A3E014
:1050F300F91214A7E9F508E508C3940A5021A90891
:105103001214E3E9FC7509017809121E8D7D08A9C3
:1051130008EEFAEFFB1215557401121C1C80319036
:105123001C78E0700C7905EEFAEFFB1206A3E98018
:105133001F901C78E0640170177C007D00850A8253
:10514300850B83A3A3A3A3E0F9EEFAEFFB121549A2
:105153007406121C1C7F06021D4874F2121C768909
:105163000BEAFEEBFF8C088D09750A0AE50B600C50
:10517300146009146044146064025202EEFAEFFBF7
:105183001214F5E9F50AE50AC3940A5072E50845D5
:1051930009606C750C06750D00780C121E89EEFC07
:1051A300EFFDAA08AB0912165D7402121C1C8A0CCF
:1051B3008B0D850C82850D838045EEFAEFFB12146F
:1051C300EFE9F50AE50AC3940A5034E50845096096
:1051D3002EAA08AB09A90A1214E9E98022EEFAEF14
:1051E300FB1214FBE9F50AE50AC3940A5011E5081A
:1051F3004509600BAA08AB09A90A1214E9E9F8A941
:105203000A7F06021D4874F2121C768A0C8B0DE984
:10521300FF7E1574FF650C700474FF650D702A75AD
:105223000800E508C3940A5014EFFC7A027B00A936
:10523300081214C5E960027E00050880E5EF60628C
:105243007A3D7B15120BEF8059AA0CAB0D120BBFE5
:105253008A0A8B0B850A08850B09E5084509604016
:105263007C007D00E5082405FAE43509FB85088206
:10527300850983A3A3A3A3E0F91214A7E9F50AE51B
:105283000AC3940A500EEFFC7A027B00A90A121497
:10529300C5E97E00EF600BAA08AB0912153D800239
:1052A3007E14EEF97F06021D4874EE121C768A0EF8
:1052B3008B0F8C0A8D0B7412121C52E0F50CA3E0B9
:1052C300F50D75081574FF650E700474FF650F7096
:1052D3001E7E00EEC3940A5061AC0CAD0DAA0AAB5E
:1052E3000BEEF91214CBE960037508000E80E4AAF3
:1052F3000EAB0F120BBF8A108B11AE10AF11EE4F16
:1053030060357C007D00EE2405FAE43FFB8E828F3E
:1053130083A3A3A3A3E0F91214A7E9F509E509C33D
:10532300940A5016AC0CAD0DAA0AAB0BA9091214C2
:10533300CBE97508008003750814A9087F0A021DCC
:105343004874F7121C76EAFEEBFF9012ABEEF0A363
:10535300EFF0901291E0FC7D007A267B0012060D9F
:10536300E9F508901291E0F91208E37F01021D4864
:1053730074F0121C7674EC121C068A0C8B0D850CCF
:1053830082850D83A3A3E024FA70030258AB24FDA6
:1053930070030257091470030254691460161470E1
:1053A3000302589424FE700302560F14700302572D
:1053B300480258BEAE0CAF0D9012ABE0F8A3E0F973
:1053C300E84960669012ABE0F8A3E0F5838882E0D9
:1053D300F8A3E0F9E8496052EE240CF582E43FF5C6
:1053E30083E0F5087808121E8DEE240BF582E43F66
:1053F300F583E0F98E828F83A3A3A3A3A3A3A3A31F
:10540300A3E0FCA3E0FDEE2403FAE43FFB9012AB20
:10541300E0F8A3E0F5838882E0F8A3E0F5838882CF
:10542300121C747401121C1C80398E828F83A3A3F7
:10543300A3A3A3A3A3A3A3121EA09012A7121ADCD3
:105443001206A97402121C1CE9601879018E828F5E
:1054530083A3A3A3A3A3A3A3A3A3E0FAA3E0FB12A1
:1054630006A3E90258BEAE0CAF0D7508008E828FFD
:1054730083A3E060030255918E828F83A3A3A3A32A
:10548300A3E0A2E04003025591901345E0F8A3E0A6
:10549300F9E84960030255917C0E7D007900AA1852
:1054A300AB191216758A0A8B0BAA0AAB0BEE240CE6
:1054B300F582E43FF583E0F8A3E0F9E84960367547
:1054C3000A06750B00780A121E89EE240CF582E495
:1054D3003FF583E02410FCA3E03400FD7402121CAA
:1054E3006412165D7402121C1C8A0A8B0B850A82D5
:1054F300850B83804F8E828F83A3A3A3E0FAA3E05F
:10550300FB120BBF8A0E8B0F850E0A850F0BE50A64
:10551300450B602D750E06750F00780E121E89E57A
:105523000A2405FCE4350BFD7402121C6412165D9B
:105533007402121C1C8A0E8B0F850E82850F8380CA
:10554300030258BE8E828F83A3A3A3A3A3E0A2E288
:105553005004D2F08002C2F0A2F0E433F879007470
:105563000C121C52E048F0A3E049F0EEFCEFFDAA58
:1055730018AB191214DDE970127A027B00901291B4
:10558300E0F91216B1E979000258C07508159012B6
:10559300ABE0F8A3E0F9E849606F9012ABE0F8A341
:1055A300E0F5838882A3A3E0F8A3E0F9E849605912
:1055B3008E828F83A3E0FC79018E828F83A3A3A3C2
:1055C300E0FAA3E0FB9012ABE0F8A3E0F583888256
:1055D300A3A3E0F8A3E0F5838882121C74E50860B6
:1055E30028AC0879038E828F83A3A3A3E0FAA3E0F8
:1055F300FB9012ABE0F8A3E0F5838882A3A3E0F865
:10560300A3E0F5838882121C740258BEAE0CAF0D62
:105613008E828F83A3E0640660030256B58E828F69
:1056230083A3A3A3E0FAA3E0FB120BBF8A0A8B0BAD
:10563300850A08850B09E50845096076901C7EE01C
:1056430014600814602614603F80677C007D008529
:105653000882850983A3A3A3A3E0F98E828F83A382
:10566300A3A3E0FAA3E0FB12154980467C058E82D2
:105673008F83A3A3A3E0FAA3E0FB850882850983B4
:10568300E0F912068BE9802A7C007D0079007A0913
:105693007B0412148FE9F50A7C058E828F83A3A302
:1056A300A3E0FAA3E0FB850882850983E0F91206EB
:1056B3008BE99012ABE0F8A3E0F9E849604590125A
:1056C300ABE0F8A3E0F5838882A3A3E0F8A3E0F9B5
:1056D300E849602F850C82850D83A3E0FC79028E57
:1056E300828F83A3A3A3E0FAA3E0FB9012ABE0F8BD
:1056F300A3E0F5838882A3A3E0F8A3E0F58388827F
:10570300121C740258BEAE0CAF0D7C007D00EE245B
:1057130004FAE43FFB8E828F83A3A3A3E0F9121460
:10572300A7E9F508E508C3940A5017EE240AFCE438
:105733003FFD7A0475F006E508A42425F91217A1A4
:10574300E9F80258BEAE0CAF0D9012A6E0601990B6
:105753001C7BE0F98E828F83A3A3A3E0FAA3E0FB73
:105763001206A3E9F80258BE901C78E0701679057A
:105773008E828F83A3A3A3E0FAA3E0FB1206A3E91F
:10578300F80258BE8E828F83A3A3A3E0FAA3E0FBA3
:10579300120BBF8A0A8B0B850A08850B09E508459E
:1057A3000970030258BE8E828F83A3A3A3A3A3A36E
:1057B300A3E0A2E0506D850882850983A3A3A3A378
:1057C300E060608E828F83A3A3A3A3A3A3A3A3A359
:1057D300E0F50AA3E0F50B7409780A121BE4E50A65
:1057E3005401F8E50B5400F9E8A2E04036740E12B8
:1057F3001C6CE5082405FAE43509FB850882850954
:1058030083A3A3A3A3E0F91214A7E9701679038E67
:10581300828F83A3A3A3E0FAA3E0FB1206A3E9F814
:105823000258BEEE2405FCE43FFD8508828509830A
:10583300A3A3A3A3E0F98E828F83A3A3A3E0FAA378
:10584300E0FB1215499012ABE0F8A3E0F9E84960D8
:105853006A9012ABE0F8A3E0F5838882A3A3E0F893
:10586300A3E0F9E84960547C0079008E828F83A31A
:10587300A3A3E0FAA3E0FB9012ABE0F8A3E0F58367
:105883008882A3A3E0F8A3E0F5838882121C7480C6
:105893002A850C82850D83A3A3A3E0FEA3E0FFEE7C
:1058A300FAEFFB1214A18013AE0CAF0D8E828F831F
:1058B300A3A3A3E0FAA3E0FB12149B7901741412CF
:1058C3001C1C7F08021D4874F5121C7674F2121C0E
:1058D300068909EAFEEBFF8C0AAC18AD197A0E753E
:1058E300F006E509A42420F91217A7E9705F7C06E6
:1058F30079FFAA18AB191216D5E97051740C121C52
:1059030052E0F8A3E0F9E8F508E50A6005EE42087D
:105913008004EEF45208A8087900740C121C52E0BB
:10592300687003A3E0696021A8087900740C121C55
:1059330052E8F0A3E9F0AC18AD197A0E75F006E55C
:1059430009A42420F91217A1E979018002790074CE
:105953000E121C1C7F03021D4874F0121C7674E6A1
:10596300121C06890B8A0C8B0DECFEEDFF740C12D6
:105973001C6C7A0E75F006E50BA42420F91217A708
:10598300E96003025A8C7C0679FF740C121C6412C2
:1059930016D5E96003025A8CAC18AD197A0C7470F1
:1059A300250BF91217A7E96003025A88750A00AAA2
:1059B30018AB191214D7E50C450D702E7C0C790029
:1059C300AA18AB191216D5E96003025A6E7C0C7D36
:1059D300007900AA18AB191216758A088B09850875
:1059E30082850983750A01025A6EAC18AD19AA0C97
:1059F300AB0D1214D18A0E8B0F850E08850F09E5A6
:105A03000845097030EE4F601BAC18AD197A007B66
:105A1300001214D18A0E8B0FA80EA90F88088909CA
:105A2300E849700479008063850882850983E50C61
:105A3300F0A3E50DF0850882850983A3A3E0F87937
:105A430000EE687002EF696022EEC0E0850882858F
:105A53000983A3A3D0E0F0EE4F700D85088285097A
:105A6300837400F0A37400F0750A01E50A6016AAB6
:105A730018AB191214D7AC18AD197A0C7470250B26
:105A8300F91217A1E9790180027900741A121C1C1A
:105A93007F08021D4874F6121C768A088B097E0063
:105AA300EEC394045050EEF87900E875F003A4C8EF
:105AB300AAF075F000A42AFA75F003E9A42AF9EC18
:105AC30028F582ED39F583E065087004A3E06509E4
:105AD3007021EEF87900E875F003A4C8AAF075F018
:105AE30000A42AFA75F003E9A42AF9EC28FAED399F
:105AF300FB80070E80AA7A007B007F02021D487498
:105B0300F7121C767C00ECC394044003025BB1ECF7
:105B1300F87900E875F003A4C8ADF075F000A42D82
:105B2300FD75F003E9A42DF9EA28F582EB39F58335
